{"project/contracts/SentimentOracle.sol":{"SentimentOracle":{"abi":[{"inputs":[],"stateMutability":"nonpayable","type":"constructor"},{"anonymous":false,"inputs":[{"indexed":true,"internalType":"address","name":"oldOracle","type":"address"},{"indexed":true,"internalType":"address","name":"newOracle","type":"address"}],"name":"OracleUpdated","type":"event"},{"anonymous":false,"inputs":[{"indexed":true,"internalType":"string","name":"asset","type":"string"},{"indexed":false,"internalType":"int256","name":"sentiment","type":"int256"},{"indexed":false,"internalType":"uint256","name":"price","type":"uint256"},{"indexed":false,"internalType":"uint256","name":"timestamp","type":"uint256"},{"indexed":false,"internalType":"string","name":"source","type":"string"}],"name":"SentimentPublished","type":"event"},{"inputs":[],"name":"MAX_HISTORY","outputs":[{"internalType":"uint256","name":"","type":"uint256"}],"stateMutability":"view","type":"function"},{"inputs":[{"internalType":"string","name":"asset","type":"string"},{"internalType":"uint256","name":"index","type":"uint256"}],"name":"getHistorical","outputs":[{"internalType":"uint256","name":"timestamp","type":"uint256"},{"internalType":"int256","name":"sentiment","type":"int256"},{"internalType":"uint256","name":"price","type":"uint256"},{"internalType":"string","name":"source","type":"string"}],"stateMutability":"view","type":"function"},{"inputs":[{"internalType":"string","name":"asset","type":"string"}],"name":"getHistoryLength","outputs":[{"internalType":"uint256","name":"","type":"uint256"}],"stateMutability":"view","type":"function"},{"inputs":[{"internalType":"string","name":"asset","type":"string"}],"name":"getLatest","outputs":[{"internalType":"uint256","name":"timestamp","type":"uint256"},{"internalType":"int256","name":"sentiment","type":"int256"},{"internalType":"uint256","name":"price","type":"uint256"},{"internalType":"string","name":"source","type":"string"}],"stateMutability":"view","type":"function"},{"inputs":[],"name":"getTrackedAssetsCount","outputs":[{"internalType":"uint256","name":"","type":"uint256"}],"stateMutability":"view","type":"function"},{"inputs":[{"internalType":"string","name":"","type":"string"},{"internalType":"uint256","name":"","type":"uint256"}],"name":"historicalData","outputs":[{"internalType":"uint256","name":"timestamp","type":"uint256"},{"internalType":"int256","name":"sentiment","type":"int256"},{"internalType":"uint256","name":"price","type":"uint256"},{"internalType":"string","name":"source","type":"string"}],"stateMutability":"view","type":"function"},{"inputs":[{"internalType":"string","name":"","type":"string"}],"name":"isTracked","outputs":[{"internalType":"bool","name":"","type":"bool"}],"stateMutability":"view","type":"function"},{"inputs":[{"internalType":"string","name":"","type":"string"}],"name":"latestData","outputs":[{"internalType":"uint256","name":"timestamp","type":"uint256"},{"internalType":"int256","name":"sentiment","type":"int256"},{"internalType":"uint256","name":"price","type":"uint256"},{"internalType":"string","name":"source","type":"string"}],"stateMutability":"view","type":"function"},{"inputs":[],"name":"oracle","outputs":[{"internalType":"address","name":"","type":"address"}],"stateMutability":"view","type":"function"},{"inputs":[{"internalType":"string[]","name":"assets","type":"string[]"},{"internalType":"int256[]","name":"sentiments","type":"int256[]"},{"internalType":"uint256[]","name":"prices","type":"uint256[]"},{"internalType":"string","name":"source","type":"string"}],"name":"publishBatch","outputs":[],"stateMutability":"nonpayable","type":"function"},{"inputs":[{"internalType":"string","name":"asset","type":"string"},{"internalType":"int256","name":"sentiment","type":"int256"},{"internalType":"uint256","name":"price","type":"uint256"},{"internalType":"string","name":"source","type":"string"}],"name":"publishSentiment","outputs":[],"stateMutability":"nonpayable","type":"function"},{"inputs":[{"internalType":"address","name":"newOracle","type":"address"}],"name":"setOracle","outputs":[],"stateMutability":"nonpayable","type":"function"},{"inputs":[{"internalType":"uint256","name":"","type":"uint256"}],"name":"trackedAssets","outputs":[{"internalType":"string","name":"","type":"string"}],"stateMutability":"view","type":"function"}],"evm":{"bytecode":{"linkReferences":{},"object":"608060405234801561001057600080fd5b50336000806101000a81548173ffffffffffffffffffffffffffffffffffffffff021916908373ffffffffffffffffffffffffffffffffffffffff1602179055506124b6806100606000396000f3fe608060405234801561001057600080fd5b50600436106100cf5760003560e01c80639250cfaf1161008c578063d24678df11610066578063d24678df1461022f578063e662efeb14610262578063f3acf8aa14610292578063f715d99c146102ae576100cf565b80639250cfaf146101c2578063b6159d44146101f5578063b70f461514610211576100cf565b806307cca318146100d457806313545a021461010757806323e7f06c146101255780637adbf973146101555780637dc0d1d014610171578063850aa85c1461018f575b600080fd5b6100ee60048036038101906100e9919061143c565b6102de565b6040516100fe9493929190611554565b60405180910390f35b61010f61046f565b60405161011c91906115a0565b60405180910390f35b61013f600480360381019061013a91906116eb565b610474565b60405161014c919061174f565b60405180910390f35b61016f600480360381019061016a91906117c8565b6104aa565b005b610179610664565b6040516101869190611804565b60405180910390f35b6101a960048036038101906101a4919061181f565b610688565b6040516101b99493929190611554565b60405180910390f35b6101dc60048036038101906101d791906116eb565b610773565b6040516101ec9493929190611554565b60405180910390f35b61020f600480360381019061020a91906118a7565b610841565b005b610219610cbe565b60405161022691906115a0565b60405180910390f35b6102496004803603810190610244919061194e565b610ccb565b6040516102599493929190611554565b60405180910390f35b61027c6004803603810190610277919061194e565b610dd7565b60405161028991906115a0565b60405180910390f35b6102ac60048036038101906102a79190611a9d565b610e05565b005b6102c860048036038101906102c39190611b86565b6112e1565b6040516102d59190611bb3565b60405180910390f35b60008060006060600287876040516102f7929190611c05565b908152602001604051809103902080549050851061034a576040517f08c379a000000000000000000000000000000000000000000000000000000000815260040161034190611c6a565b60405180910390fd5b60006002888860405161035e929190611c05565b9081526020016040518091039020868154811061037e5761037d611c8a565b5b90600052602060002090600402016040518060800160405290816000820154815260200160018201548152602001600282015481526020016003820180546103c590611ce8565b80601f01602080910402602001604051908101604052809291908181526020018280546103f190611ce8565b801561043e5780601f106104135761010080835404028352916020019161043e565b820191906000526020600020905b81548152906001019060200180831161042157829003601f168201915b5050505050815250509050806000015181602001518260400151836060015194509450945094505093509350935093565b601e81565b6004818051602081018201805184825260208301602085012081835280955050505050506000915054906101000a900460ff1681565b60008054906101000a900473ffffffffffffffffffffffffffffffffffffffff1673ffffffffffffffffffffffffffffffffffffffff163373ffffffffffffffffffffffffffffffffffffffff1614610538576040517f08c379a000000000000000000000000000000000000000000000000000000000815260040161052f90611d65565b60405180910390fd5b600073ffffffffffffffffffffffffffffffffffffffff168173ffffffffffffffffffffffffffffffffffffffff16036105a7576040517f08c379a000000000000000000000000000000000000000000000000000000000815260040161059e90611dd1565b60405180910390fd5b8073ffffffffffffffffffffffffffffffffffffffff1660008054906101000a900473ffffffffffffffffffffffffffffffffffffffff1673ffffffffffffffffffffffffffffffffffffffff167f078c3b417dadf69374a59793b829c52001247130433427049317bde56607b1b760405160405180910390a3806000806101000a81548173ffffffffffffffffffffffffffffffffffffffff021916908373ffffffffffffffffffffffffffffffffffffffff16021790555050565b60008054906101000a900473ffffffffffffffffffffffffffffffffffffffff1681565b60028280516020810182018051848252602083016020850120818352809550505050505081815481106106ba57600080fd5b9060005260206000209060040201600091509150508060000154908060010154908060020154908060030180546106f090611ce8565b80601f016020809104026020016040519081016040528092919081815260200182805461071c90611ce8565b80156107695780601f1061073e57610100808354040283529160200191610769565b820191906000526020600020905b81548152906001019060200180831161074c57829003601f168201915b5050505050905084565b6001818051602081018201805184825260208301602085012081835280955050505050506000915090508060000154908060010154908060020154908060030180546107be90611ce8565b80601f01602080910402602001604051908101604052809291908181526020018280546107ea90611ce8565b80156108375780601f1061080c57610100808354040283529160200191610837565b820191906000526020600020905b81548152906001019060200180831161081a57829003601f168201915b5050505050905084565b60008054906101000a900473ffffffffffffffffffffffffffffffffffffffff1673ffffffffffffffffffffffffffffffffffffffff163373ffffffffffffffffffffffffffffffffffffffff16146108cf576040517f08c379a00000000000000000000000000000000000000000000000000000000081526004016108c690611d65565b60405180910390fd5b6000604051806080016040528042815260200186815260200185815260200184848080601f016020809104026020016040519081016040528093929190818152602001838380828437600081840152601f19601f820116905080830192505050505050508152509050806001888860405161094b929190611c05565b9081526020016040518091039020600082015181600001556020820151816001015560408201518160020155606082015181600301908161098c9190611f9d565b50905050600487876040516109a2929190611c05565b908152602001604051809103902060009054906101000a900460ff16610a3a5760038787909180600181540180825580915050600190039060005260206000200160009091929091929091929091925091826109ff92919061207a565b50600160048888604051610a14929190611c05565b908152602001604051809103902060006101000a81548160ff0219169083151502179055505b601e60028888604051610a4e929190611c05565b90815260200160405180910390208054905010610bdd5760005b6001601e610a769190612179565b811015610b525760028888604051610a8f929190611c05565b9081526020016040518091039020600182610aaa91906121ad565b81548110610abb57610aba611c8a565b5b906000526020600020906004020160028989604051610adb929190611c05565b90815260200160405180910390208281548110610afb57610afa611c8a565b5b906000526020600020906004020160008201548160000155600182015481600101556002820154816002015560038201816003019081610b3b91906121f7565b509050508080610b4a906122df565b915050610a68565b508060028888604051610b66929190611c05565b90815260200160405180910390206001601e610b829190612179565b81548110610b9357610b92611c8a565b5b90600052602060002090600402016000820151816000015560208201518160010155604082015181600201556060820151816003019081610bd49190611f9d565b50905050610c5e565b60028787604051610bef929190611c05565b90815260200160405180910390208190806001815401808255809150506001900390600052602060002090600402016000909190919091506000820151816000015560208201518160010155604082015181600201556060820151816003019081610c5a9190611f9d565b5050505b8686604051610c6e929190611c05565b60405180910390207f37ec35502701028facb9bdc90275238af3fb7f0469ee185058ea953d93c978778686428787604051610cad959493929190612354565b60405180910390a250505050505050565b6000600380549050905090565b60008060006060600060018787604051610ce6929190611c05565b9081526020016040518091039020604051806080016040529081600082015481526020016001820154815260200160028201548152602001600382018054610d2d90611ce8565b80601f0160208091040260200160405190810160405280929190818152602001828054610d5990611ce8565b8015610da65780601f10610d7b57610100808354040283529160200191610da6565b820191906000526020600020905b815481529060010190602001808311610d8957829003601f168201915b5050505050815250509050806000015181602001518260400151836060015194509450945094505092959194509250565b600060028383604051610deb929190611c05565b908152602001604051809103902080549050905092915050565b60008054906101000a900473ffffffffffffffffffffffffffffffffffffffff1673ffffffffffffffffffffffffffffffffffffffff163373ffffffffffffffffffffffffffffffffffffffff1614610e93576040517f08c379a0000000000000000000000000000000000000000000000000000000008152600401610e8a90611d65565b60405180910390fd5b8585905088889050148015610ead57508383905086869050145b610eec576040517f08c379a0000000000000000000000000000000000000000000000000000000008152600401610ee3906123ee565b60405180910390fd5b60005b888890508110156112d65760006040518060800160405280428152602001898985818110610f2057610f1f611c8a565b5b905060200201358152602001878785818110610f3f57610f3e611c8a565b5b90506020020135815260200185858080601f016020809104026020016040519081016040528093929190818152602001838380828437600081840152601f19601f8201169050808301925050505050505081525090508060018b8b85818110610fab57610faa611c8a565b5b9050602002810190610fbd919061241d565b604051610fcb929190611c05565b9081526020016040518091039020600082015181600001556020820151816001015560408201518160020155606082015181600301908161100c9190611f9d565b5090505060048a8a8481811061102557611024611c8a565b5b9050602002810190611037919061241d565b604051611045929190611c05565b908152602001604051809103902060009054906101000a900460ff166111235760038a8a8481811061107a57611079611c8a565b5b905060200281019061108c919061241d565b909180600181540180825580915050600190039060005260206000200160009091929091929091929091925091826110c592919061207a565b50600160048b8b858181106110dd576110dc611c8a565b5b90506020028101906110ef919061241d565b6040516110fd929190611c05565b908152602001604051809103902060006101000a81548160ff0219169083151502179055505b601e60028b8b8581811061113a57611139611c8a565b5b905060200281019061114c919061241d565b60405161115a929190611c05565b90815260200160405180910390208054905010156112165760028a8a8481811061118757611186611c8a565b5b9050602002810190611199919061241d565b6040516111a7929190611c05565b908152602001604051809103902081908060018154018082558091505060019003906000526020600020906004020160009091909190915060008201518160000155602082015181600101556040820151816002015560608201518160030190816112129190611f9d565b5050505b89898381811061122957611228611c8a565b5b905060200281019061123b919061241d565b604051611249929190611c05565b60405180910390207f37ec35502701028facb9bdc90275238af3fb7f0469ee185058ea953d93c9787789898581811061128557611284611c8a565b5b9050602002013588888681811061129f5761129e611c8a565b5b905060200201354288886040516112ba959493929190612354565b60405180910390a25080806112ce906122df565b915050610eef565b505050505050505050565b600381815481106112f157600080fd5b90600052602060002001600091509050805461130c90611ce8565b80601f016020809104026020016040519081016040528092919081815260200182805461133890611ce8565b80156113855780601f1061135a57610100808354040283529160200191611385565b820191906000526020600020905b81548152906001019060200180831161136857829003601f168201915b505050505081565b6000604051905090565b600080fd5b600080fd5b600080fd5b600080fd5b600080fd5b60008083601f8401126113c6576113c56113a1565b5b8235905067ffffffffffffffff8111156113e3576113e26113a6565b5b6020830191508360018202830111156113ff576113fe6113ab565b5b9250929050565b6000819050919050565b61141981611406565b811461142457600080fd5b50565b60008135905061143681611410565b92915050565b60008060006040848603121561145557611454611397565b5b600084013567ffffffffffffffff8111156114735761147261139c565b5b61147f868287016113b0565b9350935050602061149286828701611427565b9150509250925092565b6114a581611406565b82525050565b6000819050919050565b6114be816114ab565b82525050565b600081519050919050565b600082825260208201905092915050565b60005b838110156114fe5780820151818401526020810190506114e3565b60008484015250505050565b6000601f19601f8301169050919050565b6000611526826114c4565b61153081856114cf565b93506115408185602086016114e0565b6115498161150a565b840191505092915050565b6000608082019050611569600083018761149c565b61157660208301866114b5565b611583604083018561149c565b8181036060830152611595818461151b565b905095945050505050565b60006020820190506115b5600083018461149c565b92915050565b600080fd5b7f4e487b7100000000000000000000000000000000000000000000000000000000600052604160045260246000fd5b6115f88261150a565b810181811067ffffffffffffffff82111715611617576116166115c0565b5b80604052505050565b600061162a61138d565b905061163682826115ef565b919050565b600067ffffffffffffffff821115611656576116556115c0565b5b61165f8261150a565b9050602081019050919050565b82818337600083830152505050565b600061168e6116898461163b565b611620565b9050828152602081018484840111156116aa576116a96115bb565b5b6116b584828561166c565b509392505050565b600082601f8301126116d2576116d16113a1565b5b81356116e284826020860161167b565b91505092915050565b60006020828403121561170157611700611397565b5b600082013567ffffffffffffffff81111561171f5761171e61139c565b5b61172b848285016116bd565b91505092915050565b60008115159050919050565b61174981611734565b82525050565b60006020820190506117646000830184611740565b92915050565b600073ffffffffffffffffffffffffffffffffffffffff82169050919050565b60006117958261176a565b9050919050565b6117a58161178a565b81146117b057600080fd5b50565b6000813590506117c28161179c565b92915050565b6000602082840312156117de576117dd611397565b5b60006117ec848285016117b3565b91505092915050565b6117fe8161178a565b82525050565b600060208201905061181960008301846117f5565b92915050565b6000806040838503121561183657611835611397565b5b600083013567ffffffffffffffff8111156118545761185361139c565b5b611860858286016116bd565b925050602061187185828601611427565b9150509250929050565b611884816114ab565b811461188f57600080fd5b50565b6000813590506118a18161187b565b92915050565b600080600080600080608087890312156118c4576118c3611397565b5b600087013567ffffffffffffffff8111156118e2576118e161139c565b5b6118ee89828a016113b0565b9650965050602061190189828a01611892565b945050604061191289828a01611427565b935050606087013567ffffffffffffffff8111156119335761193261139c565b5b61193f89828a016113b0565b92509250509295509295509295565b6000806020838503121561196557611964611397565b5b600083013567ffffffffffffffff8111156119835761198261139c565b5b61198f858286016113b0565b92509250509250929050565b60008083601f8401126119b1576119b06113a1565b5b8235905067ffffffffffffffff8111156119ce576119cd6113a6565b5b6020830191508360208202830111156119ea576119e96113ab565b5b9250929050565b60008083601f840112611a0757611a066113a1565b5b8235905067ffffffffffffffff811115611a2457611a236113a6565b5b602083019150836020820283011115611a4057611a3f6113ab565b5b9250929050565b60008083601f840112611a5d57611a5c6113a1565b5b8235905067ffffffffffffffff811115611a7a57611a796113a6565b5b602083019150836020820283011115611a9657611a956113ab565b5b9250929050565b6000806000806000806000806080898b031215611abd57611abc611397565b5b600089013567ffffffffffffffff811115611adb57611ada61139c565b5b611ae78b828c0161199b565b9850985050602089013567ffffffffffffffff811115611b0a57611b0961139c565b5b611b168b828c016119f1565b9650965050604089013567ffffffffffffffff811115611b3957611b3861139c565b5b611b458b828c01611a47565b9450945050606089013567ffffffffffffffff811115611b6857611b6761139c565b5b611b748b828c016113b0565b92509250509295985092959890939650565b600060208284031215611b9c57611b9b611397565b5b6000611baa84828501611427565b91505092915050565b60006020820190508181036000830152611bcd818461151b565b905092915050565b600081905092915050565b6000611bec8385611bd5565b9350611bf983858461166c565b82840190509392505050565b6000611c12828486611be0565b91508190509392505050565b7f496e646578206f7574206f6620626f756e647300000000000000000000000000600082015250565b6000611c546013836114cf565b9150611c5f82611c1e565b602082019050919050565b60006020820190508181036000830152611c8381611c47565b9050919050565b7f4e487b7100000000000000000000000000000000000000000000000000000000600052603260045260246000fd5b7f4e487b7100000000000000000000000000000000000000000000000000000000600052602260045260246000fd5b60006002820490506001821680611d0057607f821691505b602082108103611d1357611d12611cb9565b5b50919050565b7f4f6e6c79206f7261636c652063616e207075626c697368000000000000000000600082015250565b6000611d4f6017836114cf565b9150611d5a82611d19565b602082019050919050565b60006020820190508181036000830152611d7e81611d42565b9050919050565b7f496e76616c696420616464726573730000000000000000000000000000000000600082015250565b6000611dbb600f836114cf565b9150611dc682611d85565b602082019050919050565b60006020820190508181036000830152611dea81611dae565b9050919050565b60008190508160005260206000209050919050565b60006020601f8301049050919050565b600082821b905092915050565b600060088302611e537fffffffffffffffffffffffffffffffffffffffffffffffffffffffffffffffff82611e16565b611e5d8683611e16565b95508019841693508086168417925050509392505050565b6000819050919050565b6000611e9a611e95611e9084611406565b611e75565b611406565b9050919050565b6000819050919050565b611eb483611e7f565b611ec8611ec082611ea1565b848454611e23565b825550505050565b600090565b611edd611ed0565b611ee8818484611eab565b505050565b5b81811015611f0c57611f01600082611ed5565b600181019050611eee565b5050565b601f821115611f5157611f2281611df1565b611f2b84611e06565b81016020851015611f3a578190505b611f4e611f4685611e06565b830182611eed565b50505b505050565b600082821c905092915050565b6000611f7460001984600802611f56565b1980831691505092915050565b6000611f8d8383611f63565b9150826002028217905092915050565b611fa6826114c4565b67ffffffffffffffff811115611fbf57611fbe6115c0565b5b611fc98254611ce8565b611fd4828285611f10565b600060209050601f8311600181146120075760008415611ff5578287015190505b611fff8582611f81565b865550612067565b601f19841661201586611df1565b60005b8281101561203d57848901518255600182019150602085019450602081019050612018565b8683101561205a5784890151612056601f891682611f63565b8355505b6001600288020188555050505b505050505050565b600082905092915050565b612084838361206f565b67ffffffffffffffff81111561209d5761209c6115c0565b5b6120a78254611ce8565b6120b2828285611f10565b6000601f8311600181146120e157600084156120cf578287013590505b6120d98582611f81565b865550612141565b601f1984166120ef86611df1565b60005b82811015612117578489013582556001820191506020850194506020810190506120f2565b868310156121345784890135612130601f891682611f63565b8355505b6001600288020188555050505b50505050505050565b7f4e487b7100000000000000000000000000000000000000000000000000000000600052601160045260246000fd5b600061218482611406565b915061218f83611406565b92508282039050818111156121a7576121a661214a565b5b92915050565b60006121b882611406565b91506121c383611406565b92508282019050808211156121db576121da61214a565b5b92915050565b6000815490506121f081611ce8565b9050919050565b8181036122055750506122dd565b61220e826121e1565b67ffffffffffffffff811115612227576122266115c0565b5b6122318254611ce8565b61223c828285611f10565b6000601f83116001811461226b5760008415612259578287015490505b6122638582611f81565b8655506122d6565b601f19841661227987611df1565b965061228486611df1565b60005b828110156122ac57848901548255600182019150600185019450602081019050612287565b868310156122c957848901546122c5601f891682611f63565b8355505b6001600288020188555050505b5050505050505b565b60006122ea82611406565b91507fffffffffffffffffffffffffffffffffffffffffffffffffffffffffffffffff820361231c5761231b61214a565b5b600182019050919050565b600061233383856114cf565b935061234083858461166c565b6123498361150a565b840190509392505050565b600060808201905061236960008301886114b5565b612376602083018761149c565b612383604083018661149c565b8181036060830152612396818486612327565b90509695505050505050565b7f4172726179206c656e677468206d69736d617463680000000000000000000000600082015250565b60006123d86015836114cf565b91506123e3826123a2565b602082019050919050565b60006020820190508181036000830152612407816123cb565b9050919050565b600080fd5b600080fd5b600080fd5b6000808335600160200384360303811261243a5761243961240e565b5b80840192508235915067ffffffffffffffff82111561245c5761245b612413565b5b60208301925060018202360383131561247857612477612418565b5b50925092905056fea2646970667358221220bf0aa3e12a2a97bb7289332c94c6302c4f763b0293fd30090f52e9da69d255e664736f6c63430008130033","opcodes":"PUSH1 0x80 PUSH1 0x40 MSTORE CALLVALUE DUP1 ISZERO PUSH2 0x10 JUMPI PUSH1 0x0 DUP1 REVERT JUMPDEST POP CALLER PUSH1 0x0 DUP1 PUSH2 0x100 EXP DUP2 SLOAD DUP2 PUSH20 0xFFFFFFFFFFFFFFFFFFFFFFFFFFFFFFFFFFFFFFFF MUL NOT AND SWAP1 DUP4 PUSH20 0xFFFFFFFFFFFFFFFFFFFFFFFFFFFFFFFFFFFFFFFF AND MUL OR SWAP1 SSTORE POP PUSH2 0x24B6 DUP1 PUSH2 0x60 PUSH1 0x0 CODECOPY PUSH1 0x0 RETURN INVALID PUSH1 0x80 PUSH1 0x40 MSTORE CALLVALUE DUP1 ISZERO PUSH2 0x10 JUMPI PUSH1 0x0 DUP1 REVERT JUMPDEST POP PUSH1 0x4 CALLDATASIZE LT PUSH2 0xCF JUMPI PUSH1 0x0 CALLDATALOAD PUSH1 0xE0 SHR DUP1 PUSH4 0x9250CFAF GT PUSH2 0x8C JUMPI DUP1 PUSH4 0xD24678DF GT PUSH2 0x66 JUMPI DUP1 PUSH4 0xD24678DF EQ PUSH2 0x22F JUMPI DUP1 PUSH4 0xE662EFEB EQ PUSH2 0x262 JUMPI DUP1 PUSH4 0xF3ACF8AA EQ PUSH2 0x292 JUMPI DUP1 PUSH4 0xF715D99C EQ PUSH2 0x2AE JUMPI PUSH2 0xCF JUMP JUMPDEST DUP1 PUSH4 0x9250CFAF EQ PUSH2 0x1C2 JUMPI DUP1 PUSH4 0xB6159D44 EQ PUSH2 0x1F5 JUMPI DUP1 PUSH4 0xB70F4615 EQ PUSH2 0x211 JUMPI PUSH2 0xCF JUMP JUMPDEST DUP1 PUSH4 0x7CCA318 EQ PUSH2 0xD4 JUMPI DUP1 PUSH4 0x13545A02 EQ PUSH2 0x107 JUMPI DUP1 PUSH4 0x23E7F06C EQ PUSH2 0x125 JUMPI DUP1 PUSH4 0x7ADBF973 EQ PUSH2 0x155 JUMPI DUP1 PUSH4 0x7DC0D1D0 EQ PUSH2 0x171 JUMPI DUP1 PUSH4 0x850AA85C EQ PUSH2 0x18F JUMPI JUMPDEST PUSH1 0x0 DUP1 REVERT JUMPDEST PUSH2 0xEE PUSH1 0x4 DUP1 CALLDATASIZE SUB DUP2 ADD SWAP1 PUSH2 0xE9 SWAP2 SWAP1 PUSH2 0x143C JUMP JUMPDEST PUSH2 0x2DE JUMP JUMPDEST PUSH1 0x40 MLOAD PUSH2 0xFE SWAP5 SWAP4 SWAP3 SWAP2 SWAP1 PUSH2 0x1554 JUMP JUMPDEST PUSH1 0x40 MLOAD DUP1 SWAP2 SUB SWAP1 RETURN JUMPDEST PUSH2 0x10F PUSH2 0x46F JUMP JUMPDEST PUSH1 0x40 MLOAD PUSH2 0x11C SWAP2 SWAP1 PUSH2 0x15A0 JUMP JUMPDEST PUSH1 0x40 MLOAD DUP1 SWAP2 SUB SWAP1 RETURN JUMPDEST PUSH2 0x13F PUSH1 0x4 DUP1 CALLDATASIZE SUB DUP2 ADD SWAP1 PUSH2 0x13A SWAP2 SWAP1 PUSH2 0x16EB JUMP JUMPDEST PUSH2 0x474 JUMP JUMPDEST PUSH1 0x40 MLOAD PUSH2 0x14C SWAP2 SWAP1 PUSH2 0x174F JUMP JUMPDEST PUSH1 0x40 MLOAD DUP1 SWAP2 SUB SWAP1 RETURN JUMPDEST PUSH2 0x16F PUSH1 0x4 DUP1 CALLDATASIZE SUB DUP2 ADD SWAP1 PUSH2 0x16A SWAP2 SWAP1 PUSH2 0x17C8 JUMP JUMPDEST PUSH2 0x4AA JUMP JUMPDEST STOP JUMPDEST PUSH2 0x179 PUSH2 0x664 JUMP JUMPDEST PUSH1 0x40 MLOAD PUSH2 0x186 SWAP2 SWAP1 PUSH2 0x1804 JUMP JUMPDEST PUSH1 0x40 MLOAD DUP1 SWAP2 SUB SWAP1 RETURN JUMPDEST PUSH2 0x1A9 PUSH1 0x4 DUP1 CALLDATASIZE SUB DUP2 ADD SWAP1 PUSH2 0x1A4 SWAP2 SWAP1 PUSH2 0x181F JUMP JUMPDEST PUSH2 0x688 JUMP JUMPDEST PUSH1 0x40 MLOAD PUSH2 0x1B9 SWAP5 SWAP4 SWAP3 SWAP2 SWAP1 PUSH2 0x1554 JUMP JUMPDEST PUSH1 0x40 MLOAD DUP1 SWAP2 SUB SWAP1 RETURN JUMPDEST PUSH2 0x1DC PUSH1 0x4 DUP1 CALLDATASIZE SUB DUP2 ADD SWAP1 PUSH2 0x1D7 SWAP2 SWAP1 PUSH2 0x16EB JUMP JUMPDEST PUSH2 0x773 JUMP JUMPDEST PUSH1 0x40 MLOAD PUSH2 0x1EC SWAP5 SWAP4 SWAP3 SWAP2 SWAP1 PUSH2 0x1554 JUMP JUMPDEST PUSH1 0x40 MLOAD DUP1 SWAP2 SUB SWAP1 RETURN JUMPDEST PUSH2 0x20F PUSH1 0x4 DUP1 CALLDATASIZE SUB DUP2 ADD SWAP1 PUSH2 0x20A SWAP2 SWAP1 PUSH2 0x18A7 JUMP JUMPDEST PUSH2 0x841 JUMP JUMPDEST STOP JUMPDEST PUSH2 0x219 PUSH2 0xCBE JUMP JUMPDEST PUSH1 0x40 MLOAD PUSH2 0x226 SWAP2 SWAP1 PUSH2 0x15A0 JUMP JUMPDEST PUSH1 0x40 MLOAD DUP1 SWAP2 SUB SWAP1 RETURN JUMPDEST PUSH2 0x249 PUSH1 0x4 DUP1 CALLDATASIZE SUB DUP2 ADD SWAP1 PUSH2 0x244 SWAP2 SWAP1 PUSH2 0x194E JUMP JUMPDEST PUSH2 0xCCB JUMP JUMPDEST PUSH1 0x40 MLOAD PUSH2 0x259 SWAP5 SWAP4 SWAP3 SWAP2 SWAP1 PUSH2 0x1554 JUMP JUMPDEST PUSH1 0x40 MLOAD DUP1 SWAP2 SUB SWAP1 RETURN JUMPDEST PUSH2 0x27C PUSH1 0x4 DUP1 CALLDATASIZE SUB DUP2 ADD SWAP1 PUSH2 0x277 SWAP2 SWAP1 PUSH2 0x194E JUMP JUMPDEST PUSH2 0xDD7 JUMP JUMPDEST PUSH1 0x40 MLOAD PUSH2 0x289 SWAP2 SWAP1 PUSH2 0x15A0 JUMP JUMPDEST PUSH1 0x40 MLOAD DUP1 SWAP2 SUB SWAP1 RETURN JUMPDEST PUSH2 0x2AC PUSH1 0x4 DUP1 CALLDATASIZE SUB DUP2 ADD SWAP1 PUSH2 0x2A7 SWAP2 SWAP1 PUSH2 0x1A9D JUMP JUMPDEST PUSH2 0xE05 JUMP JUMPDEST STOP JUMPDEST PUSH2 0x2C8 PUSH1 0x4 DUP1 CALLDATASIZE SUB DUP2 ADD SWAP1 PUSH2 0x2C3 SWAP2 SWAP1 PUSH2 0x1B86 JUMP JUMPDEST PUSH2 0x12E1 JUMP JUMPDEST PUSH1 0x40 MLOAD PUSH2 0x2D5 SWAP2 SWAP1 PUSH2 0x1BB3 JUMP JUMPDEST PUSH1 0x40 MLOAD DUP1 SWAP2 SUB SWAP1 RETURN JUMPDEST PUSH1 0x0 DUP1 PUSH1 0x0 PUSH1 0x60 PUSH1 0x2 DUP8 DUP8 PUSH1 0x40 MLOAD PUSH2 0x2F7 SWAP3 SWAP2 SWAP1 PUSH2 0x1C05 JUMP JUMPDEST SWAP1 DUP2 MSTORE PUSH1 0x20 ADD PUSH1 0x40 MLOAD DUP1 SWAP2 SUB SWAP1 KECCAK256 DUP1 SLOAD SWAP1 POP DUP6 LT PUSH2 0x34A JUMPI PUSH1 0x40 MLOAD PUSH32 0x8C379A000000000000000000000000000000000000000000000000000000000 DUP2 MSTORE PUSH1 0x4 ADD PUSH2 0x341 SWAP1 PUSH2 0x1C6A JUMP JUMPDEST PUSH1 0x40 MLOAD DUP1 SWAP2 SUB SWAP1 REVERT JUMPDEST PUSH1 0x0 PUSH1 0x2 DUP9 DUP9 PUSH1 0x40 MLOAD PUSH2 0x35E SWAP3 SWAP2 SWAP1 PUSH2 0x1C05 JUMP JUMPDEST SWAP1 DUP2 MSTORE PUSH1 0x20 ADD PUSH1 0x40 MLOAD DUP1 SWAP2 SUB SWAP1 KECCAK256 DUP7 DUP2 SLOAD DUP2 LT PUSH2 0x37E JUMPI PUSH2 0x37D PUSH2 0x1C8A JUMP JUMPDEST JUMPDEST SWAP1 PUSH1 0x0 MSTORE PUSH1 0x20 PUSH1 0x0 KECCAK256 SWAP1 PUSH1 0x4 MUL ADD PUSH1 0x40 MLOAD DUP1 PUSH1 0x80 ADD PUSH1 0x40 MSTORE SWAP1 DUP2 PUSH1 0x0 DUP3 ADD SLOAD DUP2 MSTORE PUSH1 0x20 ADD PUSH1 0x1 DUP3 ADD SLOAD DUP2 MSTORE PUSH1 0x20 ADD PUSH1 0x2 DUP3 ADD SLOAD DUP2 MSTORE PUSH1 0x20 ADD PUSH1 0x3 DUP3 ADD DUP1 SLOAD PUSH2 0x3C5 SWAP1 PUSH2 0x1CE8 JUMP JUMPDEST DUP1 PUSH1 0x1F ADD PUSH1 0x20 DUP1 SWAP2 DIV MUL PUSH1 0x20 ADD PUSH1 0x40 MLOAD SWAP1 DUP2 ADD PUSH1 0x40 MSTORE DUP1 SWAP3 SWAP2 SWAP1 DUP2 DUP2 MSTORE PUSH1 0x20 ADD DUP3 DUP1 SLOAD PUSH2 0x3F1 SWAP1 PUSH2 0x1CE8 JUMP JUMPDEST DUP1 ISZERO PUSH2 0x43E JUMPI DUP1 PUSH1 0x1F LT PUSH2 0x413 JUMPI PUSH2 0x100 DUP1 DUP4 SLOAD DIV MUL DUP4 MSTORE SWAP2 PUSH1 0x20 ADD SWAP2 PUSH2 0x43E JUMP JUMPDEST DUP3 ADD SWAP2 SWAP1 PUSH1 0x0 MSTORE PUSH1 0x20 PUSH1 0x0 KECCAK256 SWAP1 JUMPDEST DUP2 SLOAD DUP2 MSTORE SWAP1 PUSH1 0x1 ADD SWAP1 PUSH1 0x20 ADD DUP1 DUP4 GT PUSH2 0x421 JUMPI DUP3 SWAP1 SUB PUSH1 0x1F AND DUP3 ADD SWAP2 JUMPDEST POP POP POP POP POP DUP2 MSTORE POP POP SWAP1 POP DUP1 PUSH1 0x0 ADD MLOAD DUP2 PUSH1 0x20 ADD MLOAD DUP3 PUSH1 0x40 ADD MLOAD DUP4 PUSH1 0x60 ADD MLOAD SWAP5 POP SWAP5 POP SWAP5 POP SWAP5 POP POP SWAP4 POP SWAP4 POP SWAP4 POP SWAP4 JUMP JUMPDEST PUSH1 0x1E DUP2 JUMP JUMPDEST PUSH1 0x4 DUP2 DUP1 MLOAD PUSH1 0x20 DUP2 ADD DUP3 ADD DUP1 MLOAD DUP5 DUP3 MSTORE PUSH1 0x20 DUP4 ADD PUSH1 0x20 DUP6 ADD KECCAK256 DUP2 DUP4 MSTORE DUP1 SWAP6 POP POP POP POP POP POP PUSH1 0x0 SWAP2 POP SLOAD SWAP1 PUSH2 0x100 EXP SWAP1 DIV PUSH1 0xFF AND DUP2 JUMP JUMPDEST PUSH1 0x0 DUP1 SLOAD SWAP1 PUSH2 0x100 EXP SWAP1 DIV PUSH20 0xFFFFFFFFFFFFFFFFFFFFFFFFFFFFFFFFFFFFFFFF AND PUSH20 0xFFFFFFFFFFFFFFFFFFFFFFFFFFFFFFFFFFFFFFFF AND CALLER PUSH20 0xFFFFFFFFFFFFFFFFFFFFFFFFFFFFFFFFFFFFFFFF AND EQ PUSH2 0x538 JUMPI PUSH1 0x40 MLOAD PUSH32 0x8C379A000000000000000000000000000000000000000000000000000000000 DUP2 MSTORE PUSH1 0x4 ADD PUSH2 0x52F SWAP1 PUSH2 0x1D65 JUMP JUMPDEST PUSH1 0x40 MLOAD DUP1 SWAP2 SUB SWAP1 REVERT JUMPDEST PUSH1 0x0 PUSH20 0xFFFFFFFFFFFFFFFFFFFFFFFFFFFFFFFFFFFFFFFF AND DUP2 PUSH20 0xFFFFFFFFFFFFFFFFFFFFFFFFFFFFFFFFFFFFFFFF AND SUB PUSH2 0x5A7 JUMPI PUSH1 0x40 MLOAD PUSH32 0x8C379A000000000000000000000000000000000000000000000000000000000 DUP2 MSTORE PUSH1 0x4 ADD PUSH2 0x59E SWAP1 PUSH2 0x1DD1 JUMP JUMPDEST PUSH1 0x40 MLOAD DUP1 SWAP2 SUB SWAP1 REVERT JUMPDEST DUP1 PUSH20 0xFFFFFFFFFFFFFFFFFFFFFFFFFFFFFFFFFFFFFFFF AND PUSH1 0x0 DUP1 SLOAD SWAP1 PUSH2 0x100 EXP SWAP1 DIV PUSH20 0xFFFFFFFFFFFFFFFFFFFFFFFFFFFFFFFFFFFFFFFF AND PUSH20 0xFFFFFFFFFFFFFFFFFFFFFFFFFFFFFFFFFFFFFFFF AND PUSH32 0x78C3B417DADF69374A59793B829C52001247130433427049317BDE56607B1B7 PUSH1 0x40 MLOAD PUSH1 0x40 MLOAD DUP1 SWAP2 SUB SWAP1 LOG3 DUP1 PUSH1 0x0 DUP1 PUSH2 0x100 EXP DUP2 SLOAD DUP2 PUSH20 0xFFFFFFFFFFFFFFFFFFFFFFFFFFFFFFFFFFFFFFFF MUL NOT AND SWAP1 DUP4 PUSH20 0xFFFFFFFFFFFFFFFFFFFFFFFFFFFFFFFFFFFFFFFF AND MUL OR SWAP1 SSTORE POP POP JUMP JUMPDEST PUSH1 0x0 DUP1 SLOAD SWAP1 PUSH2 0x100 EXP SWAP1 DIV PUSH20 0xFFFFFFFFFFFFFFFFFFFFFFFFFFFFFFFFFFFFFFFF AND DUP2 JUMP JUMPDEST PUSH1 0x2 DUP3 DUP1 MLOAD PUSH1 0x20 DUP2 ADD DUP3 ADD DUP1 MLOAD DUP5 DUP3 MSTORE PUSH1 0x20 DUP4 ADD PUSH1 0x20 DUP6 ADD KECCAK256 DUP2 DUP4 MSTORE DUP1 SWAP6 POP POP POP POP POP POP DUP2 DUP2 SLOAD DUP2 LT PUSH2 0x6BA JUMPI PUSH1 0x0 DUP1 REVERT JUMPDEST SWAP1 PUSH1 0x0 MSTORE PUSH1 0x20 PUSH1 0x0 KECCAK256 SWAP1 PUSH1 0x4 MUL ADD PUSH1 0x0 SWAP2 POP SWAP2 POP POP DUP1 PUSH1 0x0 ADD SLOAD SWAP1 DUP1 PUSH1 0x1 ADD SLOAD SWAP1 DUP1 PUSH1 0x2 ADD SLOAD SWAP1 DUP1 PUSH1 0x3 ADD DUP1 SLOAD PUSH2 0x6F0 SWAP1 PUSH2 0x1CE8 JUMP JUMPDEST DUP1 PUSH1 0x1F ADD PUSH1 0x20 DUP1 SWAP2 DIV MUL PUSH1 0x20 ADD PUSH1 0x40 MLOAD SWAP1 DUP2 ADD PUSH1 0x40 MSTORE DUP1 SWAP3 SWAP2 SWAP1 DUP2 DUP2 MSTORE PUSH1 0x20 ADD DUP3 DUP1 SLOAD PUSH2 0x71C SWAP1 PUSH2 0x1CE8 JUMP JUMPDEST DUP1 ISZERO PUSH2 0x769 JUMPI DUP1 PUSH1 0x1F LT PUSH2 0x73E JUMPI PUSH2 0x100 DUP1 DUP4 SLOAD DIV MUL DUP4 MSTORE SWAP2 PUSH1 0x20 ADD SWAP2 PUSH2 0x769 JUMP JUMPDEST DUP3 ADD SWAP2 SWAP1 PUSH1 0x0 MSTORE PUSH1 0x20 PUSH1 0x0 KECCAK256 SWAP1 JUMPDEST DUP2 SLOAD DUP2 MSTORE SWAP1 PUSH1 0x1 ADD SWAP1 PUSH1 0x20 ADD DUP1 DUP4 GT PUSH2 0x74C JUMPI DUP3 SWAP1 SUB PUSH1 0x1F AND DUP3 ADD SWAP2 JUMPDEST POP POP POP POP POP SWAP1 POP DUP5 JUMP JUMPDEST PUSH1 0x1 DUP2 DUP1 MLOAD PUSH1 0x20 DUP2 ADD DUP3 ADD DUP1 MLOAD DUP5 DUP3 MSTORE PUSH1 0x20 DUP4 ADD PUSH1 0x20 DUP6 ADD KECCAK256 DUP2 DUP4 MSTORE DUP1 SWAP6 POP POP POP POP POP POP PUSH1 0x0 SWAP2 POP SWAP1 POP DUP1 PUSH1 0x0 ADD SLOAD SWAP1 DUP1 PUSH1 0x1 ADD SLOAD SWAP1 DUP1 PUSH1 0x2 ADD SLOAD SWAP1 DUP1 PUSH1 0x3 ADD DUP1 SLOAD PUSH2 0x7BE SWAP1 PUSH2 0x1CE8 JUMP JUMPDEST DUP1 PUSH1 0x1F ADD PUSH1 0x20 DUP1 SWAP2 DIV MUL PUSH1 0x20 ADD PUSH1 0x40 MLOAD SWAP1 DUP2 ADD PUSH1 0x40 MSTORE DUP1 SWAP3 SWAP2 SWAP1 DUP2 DUP2 MSTORE PUSH1 0x20 ADD DUP3 DUP1 SLOAD PUSH2 0x7EA SWAP1 PUSH2 0x1CE8 JUMP JUMPDEST DUP1 ISZERO PUSH2 0x837 JUMPI DUP1 PUSH1 0x1F LT PUSH2 0x80C JUMPI PUSH2 0x100 DUP1 DUP4 SLOAD DIV MUL DUP4 MSTORE SWAP2 PUSH1 0x20 ADD SWAP2 PUSH2 0x837 JUMP JUMPDEST DUP3 ADD SWAP2 SWAP1 PUSH1 0x0 MSTORE PUSH1 0x20 PUSH1 0x0 KECCAK256 SWAP1 JUMPDEST DUP2 SLOAD DUP2 MSTORE SWAP1 PUSH1 0x1 ADD SWAP1 PUSH1 0x20 ADD DUP1 DUP4 GT PUSH2 0x81A JUMPI DUP3 SWAP1 SUB PUSH1 0x1F AND DUP3 ADD SWAP2 JUMPDEST POP POP POP POP POP SWAP1 POP DUP5 JUMP JUMPDEST PUSH1 0x0 DUP1 SLOAD SWAP1 PUSH2 0x100 EXP SWAP1 DIV PUSH20 0xFFFFFFFFFFFFFFFFFFFFFFFFFFFFFFFFFFFFFFFF AND PUSH20 0xFFFFFFFFFFFFFFFFFFFFFFFFFFFFFFFFFFFFFFFF AND CALLER PUSH20 0xFFFFFFFFFFFFFFFFFFFFFFFFFFFFFFFFFFFFFFFF AND EQ PUSH2 0x8CF JUMPI PUSH1 0x40 MLOAD PUSH32 0x8C379A000000000000000000000000000000000000000000000000000000000 DUP2 MSTORE PUSH1 0x4 ADD PUSH2 0x8C6 SWAP1 PUSH2 0x1D65 JUMP JUMPDEST PUSH1 0x40 MLOAD DUP1 SWAP2 SUB SWAP1 REVERT JUMPDEST PUSH1 0x0 PUSH1 0x40 MLOAD DUP1 PUSH1 0x80 ADD PUSH1 0x40 MSTORE DUP1 TIMESTAMP DUP2 MSTORE PUSH1 0x20 ADD DUP7 DUP2 MSTORE PUSH1 0x20 ADD DUP6 DUP2 MSTORE PUSH1 0x20 ADD DUP5 DUP5 DUP1 DUP1 PUSH1 0x1F ADD PUSH1 0x20 DUP1 SWAP2 DIV MUL PUSH1 0x20 ADD PUSH1 0x40 MLOAD SWAP1 DUP2 ADD PUSH1 0x40 MSTORE DUP1 SWAP4 SWAP3 SWAP2 SWAP1 DUP2 DUP2 MSTORE PUSH1 0x20 ADD DUP4 DUP4 DUP1 DUP3 DUP5 CALLDATACOPY PUSH1 0x0 DUP2 DUP5 ADD MSTORE PUSH1 0x1F NOT PUSH1 0x1F DUP3 ADD AND SWAP1 POP DUP1 DUP4 ADD SWAP3 POP POP POP POP POP POP POP DUP2 MSTORE POP SWAP1 POP DUP1 PUSH1 0x1 DUP9 DUP9 PUSH1 0x40 MLOAD PUSH2 0x94B SWAP3 SWAP2 SWAP1 PUSH2 0x1C05 JUMP JUMPDEST SWAP1 DUP2 MSTORE PUSH1 0x20 ADD PUSH1 0x40 MLOAD DUP1 SWAP2 SUB SWAP1 KECCAK256 PUSH1 0x0 DUP3 ADD MLOAD DUP2 PUSH1 0x0 ADD SSTORE PUSH1 0x20 DUP3 ADD MLOAD DUP2 PUSH1 0x1 ADD SSTORE PUSH1 0x40 DUP3 ADD MLOAD DUP2 PUSH1 0x2 ADD SSTORE PUSH1 0x60 DUP3 ADD MLOAD DUP2 PUSH1 0x3 ADD SWAP1 DUP2 PUSH2 0x98C SWAP2 SWAP1 PUSH2 0x1F9D JUMP JUMPDEST POP SWAP1 POP POP PUSH1 0x4 DUP8 DUP8 PUSH1 0x40 MLOAD PUSH2 0x9A2 SWAP3 SWAP2 SWAP1 PUSH2 0x1C05 JUMP JUMPDEST SWAP1 DUP2 MSTORE PUSH1 0x20 ADD PUSH1 0x40 MLOAD DUP1 SWAP2 SUB SWAP1 KECCAK256 PUSH1 0x0 SWAP1 SLOAD SWAP1 PUSH2 0x100 EXP SWAP1 DIV PUSH1 0xFF AND PUSH2 0xA3A JUMPI PUSH1 0x3 DUP8 DUP8 SWAP1 SWAP2 DUP1 PUSH1 0x1 DUP2 SLOAD ADD DUP1 DUP3 SSTORE DUP1 SWAP2 POP POP PUSH1 0x1 SWAP1 SUB SWAP1 PUSH1 0x0 MSTORE PUSH1 0x20 PUSH1 0x0 KECCAK256 ADD PUSH1 0x0 SWAP1 SWAP2 SWAP3 SWAP1 SWAP2 SWAP3 SWAP1 SWAP2 SWAP3 SWAP1 SWAP2 SWAP3 POP SWAP2 DUP3 PUSH2 0x9FF SWAP3 SWAP2 SWAP1 PUSH2 0x207A JUMP JUMPDEST POP PUSH1 0x1 PUSH1 0x4 DUP9 DUP9 PUSH1 0x40 MLOAD PUSH2 0xA14 SWAP3 SWAP2 SWAP1 PUSH2 0x1C05 JUMP JUMPDEST SWAP1 DUP2 MSTORE PUSH1 0x20 ADD PUSH1 0x40 MLOAD DUP1 SWAP2 SUB SWAP1 KECCAK256 PUSH1 0x0 PUSH2 0x100 EXP DUP2 SLOAD DUP2 PUSH1 0xFF MUL NOT AND SWAP1 DUP4 ISZERO ISZERO MUL OR SWAP1 SSTORE POP JUMPDEST PUSH1 0x1E PUSH1 0x2 DUP9 DUP9 PUSH1 0x40 MLOAD PUSH2 0xA4E SWAP3 SWAP2 SWAP1 PUSH2 0x1C05 JUMP JUMPDEST SWAP1 DUP2 MSTORE PUSH1 0x20 ADD PUSH1 0x40 MLOAD DUP1 SWAP2 SUB SWAP1 KECCAK256 DUP1 SLOAD SWAP1 POP LT PUSH2 0xBDD JUMPI PUSH1 0x0 JUMPDEST PUSH1 0x1 PUSH1 0x1E PUSH2 0xA76 SWAP2 SWAP1 PUSH2 0x2179 JUMP JUMPDEST DUP2 LT ISZERO PUSH2 0xB52 JUMPI PUSH1 0x2 DUP9 DUP9 PUSH1 0x40 MLOAD PUSH2 0xA8F SWAP3 SWAP2 SWAP1 PUSH2 0x1C05 JUMP JUMPDEST SWAP1 DUP2 MSTORE PUSH1 0x20 ADD PUSH1 0x40 MLOAD DUP1 SWAP2 SUB SWAP1 KECCAK256 PUSH1 0x1 DUP3 PUSH2 0xAAA SWAP2 SWAP1 PUSH2 0x21AD JUMP JUMPDEST DUP2 SLOAD DUP2 LT PUSH2 0xABB JUMPI PUSH2 0xABA PUSH2 0x1C8A JUMP JUMPDEST JUMPDEST SWAP1 PUSH1 0x0 MSTORE PUSH1 0x20 PUSH1 0x0 KECCAK256 SWAP1 PUSH1 0x4 MUL ADD PUSH1 0x2 DUP10 DUP10 PUSH1 0x40 MLOAD PUSH2 0xADB SWAP3 SWAP2 SWAP1 PUSH2 0x1C05 JUMP JUMPDEST SWAP1 DUP2 MSTORE PUSH1 0x20 ADD PUSH1 0x40 MLOAD DUP1 SWAP2 SUB SWAP1 KECCAK256 DUP3 DUP2 SLOAD DUP2 LT PUSH2 0xAFB JUMPI PUSH2 0xAFA PUSH2 0x1C8A JUMP JUMPDEST JUMPDEST SWAP1 PUSH1 0x0 MSTORE PUSH1 0x20 PUSH1 0x0 KECCAK256 SWAP1 PUSH1 0x4 MUL ADD PUSH1 0x0 DUP3 ADD SLOAD DUP2 PUSH1 0x0 ADD SSTORE PUSH1 0x1 DUP3 ADD SLOAD DUP2 PUSH1 0x1 ADD SSTORE PUSH1 0x2 DUP3 ADD SLOAD DUP2 PUSH1 0x2 ADD SSTORE PUSH1 0x3 DUP3 ADD DUP2 PUSH1 0x3 ADD SWAP1 DUP2 PUSH2 0xB3B SWAP2 SWAP1 PUSH2 0x21F7 JUMP JUMPDEST POP SWAP1 POP POP DUP1 DUP1 PUSH2 0xB4A SWAP1 PUSH2 0x22DF JUMP JUMPDEST SWAP2 POP POP PUSH2 0xA68 JUMP JUMPDEST POP DUP1 PUSH1 0x2 DUP9 DUP9 PUSH1 0x40 MLOAD PUSH2 0xB66 SWAP3 SWAP2 SWAP1 PUSH2 0x1C05 JUMP JUMPDEST SWAP1 DUP2 MSTORE PUSH1 0x20 ADD PUSH1 0x40 MLOAD DUP1 SWAP2 SUB SWAP1 KECCAK256 PUSH1 0x1 PUSH1 0x1E PUSH2 0xB82 SWAP2 SWAP1 PUSH2 0x2179 JUMP JUMPDEST DUP2 SLOAD DUP2 LT PUSH2 0xB93 JUMPI PUSH2 0xB92 PUSH2 0x1C8A JUMP JUMPDEST JUMPDEST SWAP1 PUSH1 0x0 MSTORE PUSH1 0x20 PUSH1 0x0 KECCAK256 SWAP1 PUSH1 0x4 MUL ADD PUSH1 0x0 DUP3 ADD MLOAD DUP2 PUSH1 0x0 ADD SSTORE PUSH1 0x20 DUP3 ADD MLOAD DUP2 PUSH1 0x1 ADD SSTORE PUSH1 0x40 DUP3 ADD MLOAD DUP2 PUSH1 0x2 ADD SSTORE PUSH1 0x60 DUP3 ADD MLOAD DUP2 PUSH1 0x3 ADD SWAP1 DUP2 PUSH2 0xBD4 SWAP2 SWAP1 PUSH2 0x1F9D JUMP JUMPDEST POP SWAP1 POP POP PUSH2 0xC5E JUMP JUMPDEST PUSH1 0x2 DUP8 DUP8 PUSH1 0x40 MLOAD PUSH2 0xBEF SWAP3 SWAP2 SWAP1 PUSH2 0x1C05 JUMP JUMPDEST SWAP1 DUP2 MSTORE PUSH1 0x20 ADD PUSH1 0x40 MLOAD DUP1 SWAP2 SUB SWAP1 KECCAK256 DUP2 SWAP1 DUP1 PUSH1 0x1 DUP2 SLOAD ADD DUP1 DUP3 SSTORE DUP1 SWAP2 POP POP PUSH1 0x1 SWAP1 SUB SWAP1 PUSH1 0x0 MSTORE PUSH1 0x20 PUSH1 0x0 KECCAK256 SWAP1 PUSH1 0x4 MUL ADD PUSH1 0x0 SWAP1 SWAP2 SWAP1 SWAP2 SWAP1 SWAP2 POP PUSH1 0x0 DUP3 ADD MLOAD DUP2 PUSH1 0x0 ADD SSTORE PUSH1 0x20 DUP3 ADD MLOAD DUP2 PUSH1 0x1 ADD SSTORE PUSH1 0x40 DUP3 ADD MLOAD DUP2 PUSH1 0x2 ADD SSTORE PUSH1 0x60 DUP3 ADD MLOAD DUP2 PUSH1 0x3 ADD SWAP1 DUP2 PUSH2 0xC5A SWAP2 SWAP1 PUSH2 0x1F9D JUMP JUMPDEST POP POP POP JUMPDEST DUP7 DUP7 PUSH1 0x40 MLOAD PUSH2 0xC6E SWAP3 SWAP2 SWAP1 PUSH2 0x1C05 JUMP JUMPDEST PUSH1 0x40 MLOAD DUP1 SWAP2 SUB SWAP1 KECCAK256 PUSH32 0x37EC35502701028FACB9BDC90275238AF3FB7F0469EE185058EA953D93C97877 DUP7 DUP7 TIMESTAMP DUP8 DUP8 PUSH1 0x40 MLOAD PUSH2 0xCAD SWAP6 SWAP5 SWAP4 SWAP3 SWAP2 SWAP1 PUSH2 0x2354 JUMP JUMPDEST PUSH1 0x40 MLOAD DUP1 SWAP2 SUB SWAP1 LOG2 POP POP POP POP POP POP POP JUMP JUMPDEST PUSH1 0x0 PUSH1 0x3 DUP1 SLOAD SWAP1 POP SWAP1 POP SWAP1 JUMP JUMPDEST PUSH1 0x0 DUP1 PUSH1 0x0 PUSH1 0x60 PUSH1 0x0 PUSH1 0x1 DUP8 DUP8 PUSH1 0x40 MLOAD PUSH2 0xCE6 SWAP3 SWAP2 SWAP1 PUSH2 0x1C05 JUMP JUMPDEST SWAP1 DUP2 MSTORE PUSH1 0x20 ADD PUSH1 0x40 MLOAD DUP1 SWAP2 SUB SWAP1 KECCAK256 PUSH1 0x40 MLOAD DUP1 PUSH1 0x80 ADD PUSH1 0x40 MSTORE SWAP1 DUP2 PUSH1 0x0 DUP3 ADD SLOAD DUP2 MSTORE PUSH1 0x20 ADD PUSH1 0x1 DUP3 ADD SLOAD DUP2 MSTORE PUSH1 0x20 ADD PUSH1 0x2 DUP3 ADD SLOAD DUP2 MSTORE PUSH1 0x20 ADD PUSH1 0x3 DUP3 ADD DUP1 SLOAD PUSH2 0xD2D SWAP1 PUSH2 0x1CE8 JUMP JUMPDEST DUP1 PUSH1 0x1F ADD PUSH1 0x20 DUP1 SWAP2 DIV MUL PUSH1 0x20 ADD PUSH1 0x40 MLOAD SWAP1 DUP2 ADD PUSH1 0x40 MSTORE DUP1 SWAP3 SWAP2 SWAP1 DUP2 DUP2 MSTORE PUSH1 0x20 ADD DUP3 DUP1 SLOAD PUSH2 0xD59 SWAP1 PUSH2 0x1CE8 JUMP JUMPDEST DUP1 ISZERO PUSH2 0xDA6 JUMPI DUP1 PUSH1 0x1F LT PUSH2 0xD7B JUMPI PUSH2 0x100 DUP1 DUP4 SLOAD DIV MUL DUP4 MSTORE SWAP2 PUSH1 0x20 ADD SWAP2 PUSH2 0xDA6 JUMP JUMPDEST DUP3 ADD SWAP2 SWAP1 PUSH1 0x0 MSTORE PUSH1 0x20 PUSH1 0x0 KECCAK256 SWAP1 JUMPDEST DUP2 SLOAD DUP2 MSTORE SWAP1 PUSH1 0x1 ADD SWAP1 PUSH1 0x20 ADD DUP1 DUP4 GT PUSH2 0xD89 JUMPI DUP3 SWAP1 SUB PUSH1 0x1F AND DUP3 ADD SWAP2 JUMPDEST POP POP POP POP POP DUP2 MSTORE POP POP SWAP1 POP DUP1 PUSH1 0x0 ADD MLOAD DUP2 PUSH1 0x20 ADD MLOAD DUP3 PUSH1 0x40 ADD MLOAD DUP4 PUSH1 0x60 ADD MLOAD SWAP5 POP SWAP5 POP SWAP5 POP SWAP5 POP POP SWAP3 SWAP6 SWAP2 SWAP5 POP SWAP3 POP JUMP JUMPDEST PUSH1 0x0 PUSH1 0x2 DUP4 DUP4 PUSH1 0x40 MLOAD PUSH2 0xDEB SWAP3 SWAP2 SWAP1 PUSH2 0x1C05 JUMP JUMPDEST SWAP1 DUP2 MSTORE PUSH1 0x20 ADD PUSH1 0x40 MLOAD DUP1 SWAP2 SUB SWAP1 KECCAK256 DUP1 SLOAD SWAP1 POP SWAP1 POP SWAP3 SWAP2 POP POP JUMP JUMPDEST PUSH1 0x0 DUP1 SLOAD SWAP1 PUSH2 0x100 EXP SWAP1 DIV PUSH20 0xFFFFFFFFFFFFFFFFFFFFFFFFFFFFFFFFFFFFFFFF AND PUSH20 0xFFFFFFFFFFFFFFFFFFFFFFFFFFFFFFFFFFFFFFFF AND CALLER PUSH20 0xFFFFFFFFFFFFFFFFFFFFFFFFFFFFFFFFFFFFFFFF AND EQ PUSH2 0xE93 JUMPI PUSH1 0x40 MLOAD PUSH32 0x8C379A000000000000000000000000000000000000000000000000000000000 DUP2 MSTORE PUSH1 0x4 ADD PUSH2 0xE8A SWAP1 PUSH2 0x1D65 JUMP JUMPDEST PUSH1 0x40 MLOAD DUP1 SWAP2 SUB SWAP1 REVERT JUMPDEST DUP6 DUP6 SWAP1 POP DUP9 DUP9 SWAP1 POP EQ DUP1 ISZERO PUSH2 0xEAD JUMPI POP DUP4 DUP4 SWAP1 POP DUP7 DUP7 SWAP1 POP EQ JUMPDEST PUSH2 0xEEC JUMPI PUSH1 0x40 MLOAD PUSH32 0x8C379A000000000000000000000000000000000000000000000000000000000 DUP2 MSTORE PUSH1 0x4 ADD PUSH2 0xEE3 SWAP1 PUSH2 0x23EE JUMP JUMPDEST PUSH1 0x40 MLOAD DUP1 SWAP2 SUB SWAP1 REVERT JUMPDEST PUSH1 0x0 JUMPDEST DUP9 DUP9 SWAP1 POP DUP2 LT ISZERO PUSH2 0x12D6 JUMPI PUSH1 0x0 PUSH1 0x40 MLOAD DUP1 PUSH1 0x80 ADD PUSH1 0x40 MSTORE DUP1 TIMESTAMP DUP2 MSTORE PUSH1 0x20 ADD DUP10 DUP10 DUP6 DUP2 DUP2 LT PUSH2 0xF20 JUMPI PUSH2 0xF1F PUSH2 0x1C8A JUMP JUMPDEST JUMPDEST SWAP1 POP PUSH1 0x20 MUL ADD CALLDATALOAD DUP2 MSTORE PUSH1 0x20 ADD DUP8 DUP8 DUP6 DUP2 DUP2 LT PUSH2 0xF3F JUMPI PUSH2 0xF3E PUSH2 0x1C8A JUMP JUMPDEST JUMPDEST SWAP1 POP PUSH1 0x20 MUL ADD CALLDATALOAD DUP2 MSTORE PUSH1 0x20 ADD DUP6 DUP6 DUP1 DUP1 PUSH1 0x1F ADD PUSH1 0x20 DUP1 SWAP2 DIV MUL PUSH1 0x20 ADD PUSH1 0x40 MLOAD SWAP1 DUP2 ADD PUSH1 0x40 MSTORE DUP1 SWAP4 SWAP3 SWAP2 SWAP1 DUP2 DUP2 MSTORE PUSH1 0x20 ADD DUP4 DUP4 DUP1 DUP3 DUP5 CALLDATACOPY PUSH1 0x0 DUP2 DUP5 ADD MSTORE PUSH1 0x1F NOT PUSH1 0x1F DUP3 ADD AND SWAP1 POP DUP1 DUP4 ADD SWAP3 POP POP POP POP POP POP POP DUP2 MSTORE POP SWAP1 POP DUP1 PUSH1 0x1 DUP12 DUP12 DUP6 DUP2 DUP2 LT PUSH2 0xFAB JUMPI PUSH2 0xFAA PUSH2 0x1C8A JUMP JUMPDEST JUMPDEST SWAP1 POP PUSH1 0x20 MUL DUP2 ADD SWAP1 PUSH2 0xFBD SWAP2 SWAP1 PUSH2 0x241D JUMP JUMPDEST PUSH1 0x40 MLOAD PUSH2 0xFCB SWAP3 SWAP2 SWAP1 PUSH2 0x1C05 JUMP JUMPDEST SWAP1 DUP2 MSTORE PUSH1 0x20 ADD PUSH1 0x40 MLOAD DUP1 SWAP2 SUB SWAP1 KECCAK256 PUSH1 0x0 DUP3 ADD MLOAD DUP2 PUSH1 0x0 ADD SSTORE PUSH1 0x20 DUP3 ADD MLOAD DUP2 PUSH1 0x1 ADD SSTORE PUSH1 0x40 DUP3 ADD MLOAD DUP2 PUSH1 0x2 ADD SSTORE PUSH1 0x60 DUP3 ADD MLOAD DUP2 PUSH1 0x3 ADD SWAP1 DUP2 PUSH2 0x100C SWAP2 SWAP1 PUSH2 0x1F9D JUMP JUMPDEST POP SWAP1 POP POP PUSH1 0x4 DUP11 DUP11 DUP5 DUP2 DUP2 LT PUSH2 0x1025 JUMPI PUSH2 0x1024 PUSH2 0x1C8A JUMP JUMPDEST JUMPDEST SWAP1 POP PUSH1 0x20 MUL DUP2 ADD SWAP1 PUSH2 0x1037 SWAP2 SWAP1 PUSH2 0x241D JUMP JUMPDEST PUSH1 0x40 MLOAD PUSH2 0x1045 SWAP3 SWAP2 SWAP1 PUSH2 0x1C05 JUMP JUMPDEST SWAP1 DUP2 MSTORE PUSH1 0x20 ADD PUSH1 0x40 MLOAD DUP1 SWAP2 SUB SWAP1 KECCAK256 PUSH1 0x0 SWAP1 SLOAD SWAP1 PUSH2 0x100 EXP SWAP1 DIV PUSH1 0xFF AND PUSH2 0x1123 JUMPI PUSH1 0x3 DUP11 DUP11 DUP5 DUP2 DUP2 LT PUSH2 0x107A JUMPI PUSH2 0x1079 PUSH2 0x1C8A JUMP JUMPDEST JUMPDEST SWAP1 POP PUSH1 0x20 MUL DUP2 ADD SWAP1 PUSH2 0x108C SWAP2 SWAP1 PUSH2 0x241D JUMP JUMPDEST SWAP1 SWAP2 DUP1 PUSH1 0x1 DUP2 SLOAD ADD DUP1 DUP3 SSTORE DUP1 SWAP2 POP POP PUSH1 0x1 SWAP1 SUB SWAP1 PUSH1 0x0 MSTORE PUSH1 0x20 PUSH1 0x0 KECCAK256 ADD PUSH1 0x0 SWAP1 SWAP2 SWAP3 SWAP1 SWAP2 SWAP3 SWAP1 SWAP2 SWAP3 SWAP1 SWAP2 SWAP3 POP SWAP2 DUP3 PUSH2 0x10C5 SWAP3 SWAP2 SWAP1 PUSH2 0x207A JUMP JUMPDEST POP PUSH1 0x1 PUSH1 0x4 DUP12 DUP12 DUP6 DUP2 DUP2 LT PUSH2 0x10DD JUMPI PUSH2 0x10DC PUSH2 0x1C8A JUMP JUMPDEST JUMPDEST SWAP1 POP PUSH1 0x20 MUL DUP2 ADD SWAP1 PUSH2 0x10EF SWAP2 SWAP1 PUSH2 0x241D JUMP JUMPDEST PUSH1 0x40 MLOAD PUSH2 0x10FD SWAP3 SWAP2 SWAP1 PUSH2 0x1C05 JUMP JUMPDEST SWAP1 DUP2 MSTORE PUSH1 0x20 ADD PUSH1 0x40 MLOAD DUP1 SWAP2 SUB SWAP1 KECCAK256 PUSH1 0x0 PUSH2 0x100 EXP DUP2 SLOAD DUP2 PUSH1 0xFF MUL NOT AND SWAP1 DUP4 ISZERO ISZERO MUL OR SWAP1 SSTORE POP JUMPDEST PUSH1 0x1E PUSH1 0x2 DUP12 DUP12 DUP6 DUP2 DUP2 LT PUSH2 0x113A JUMPI PUSH2 0x1139 PUSH2 0x1C8A JUMP JUMPDEST JUMPDEST SWAP1 POP PUSH1 0x20 MUL DUP2 ADD SWAP1 PUSH2 0x114C SWAP2 SWAP1 PUSH2 0x241D JUMP JUMPDEST PUSH1 0x40 MLOAD PUSH2 0x115A SWAP3 SWAP2 SWAP1 PUSH2 0x1C05 JUMP JUMPDEST SWAP1 DUP2 MSTORE PUSH1 0x20 ADD PUSH1 0x40 MLOAD DUP1 SWAP2 SUB SWAP1 KECCAK256 DUP1 SLOAD SWAP1 POP LT ISZERO PUSH2 0x1216 JUMPI PUSH1 0x2 DUP11 DUP11 DUP5 DUP2 DUP2 LT PUSH2 0x1187 JUMPI PUSH2 0x1186 PUSH2 0x1C8A JUMP JUMPDEST JUMPDEST SWAP1 POP PUSH1 0x20 MUL DUP2 ADD SWAP1 PUSH2 0x1199 SWAP2 SWAP1 PUSH2 0x241D JUMP JUMPDEST PUSH1 0x40 MLOAD PUSH2 0x11A7 SWAP3 SWAP2 SWAP1 PUSH2 0x1C05 JUMP JUMPDEST SWAP1 DUP2 MSTORE PUSH1 0x20 ADD PUSH1 0x40 MLOAD DUP1 SWAP2 SUB SWAP1 KECCAK256 DUP2 SWAP1 DUP1 PUSH1 0x1 DUP2 SLOAD ADD DUP1 DUP3 SSTORE DUP1 SWAP2 POP POP PUSH1 0x1 SWAP1 SUB SWAP1 PUSH1 0x0 MSTORE PUSH1 0x20 PUSH1 0x0 KECCAK256 SWAP1 PUSH1 0x4 MUL ADD PUSH1 0x0 SWAP1 SWAP2 SWAP1 SWAP2 SWAP1 SWAP2 POP PUSH1 0x0 DUP3 ADD MLOAD DUP2 PUSH1 0x0 ADD SSTORE PUSH1 0x20 DUP3 ADD MLOAD DUP2 PUSH1 0x1 ADD SSTORE PUSH1 0x40 DUP3 ADD MLOAD DUP2 PUSH1 0x2 ADD SSTORE PUSH1 0x60 DUP3 ADD MLOAD DUP2 PUSH1 0x3 ADD SWAP1 DUP2 PUSH2 0x1212 SWAP2 SWAP1 PUSH2 0x1F9D JUMP JUMPDEST POP POP POP JUMPDEST DUP10 DUP10 DUP4 DUP2 DUP2 LT PUSH2 0x1229 JUMPI PUSH2 0x1228 PUSH2 0x1C8A JUMP JUMPDEST JUMPDEST SWAP1 POP PUSH1 0x20 MUL DUP2 ADD SWAP1 PUSH2 0x123B SWAP2 SWAP1 PUSH2 0x241D JUMP JUMPDEST PUSH1 0x40 MLOAD PUSH2 0x1249 SWAP3 SWAP2 SWAP1 PUSH2 0x1C05 JUMP JUMPDEST PUSH1 0x40 MLOAD DUP1 SWAP2 SUB SWAP1 KECCAK256 PUSH32 0x37EC35502701028FACB9BDC90275238AF3FB7F0469EE185058EA953D93C97877 DUP10 DUP10 DUP6 DUP2 DUP2 LT PUSH2 0x1285 JUMPI PUSH2 0x1284 PUSH2 0x1C8A JUMP JUMPDEST JUMPDEST SWAP1 POP PUSH1 0x20 MUL ADD CALLDATALOAD DUP9 DUP9 DUP7 DUP2 DUP2 LT PUSH2 0x129F JUMPI PUSH2 0x129E PUSH2 0x1C8A JUMP JUMPDEST JUMPDEST SWAP1 POP PUSH1 0x20 MUL ADD CALLDATALOAD TIMESTAMP DUP9 DUP9 PUSH1 0x40 MLOAD PUSH2 0x12BA SWAP6 SWAP5 SWAP4 SWAP3 SWAP2 SWAP1 PUSH2 0x2354 JUMP JUMPDEST PUSH1 0x40 MLOAD DUP1 SWAP2 SUB SWAP1 LOG2 POP DUP1 DUP1 PUSH2 0x12CE SWAP1 PUSH2 0x22DF JUMP JUMPDEST SWAP2 POP POP PUSH2 0xEEF JUMP JUMPDEST POP POP POP POP POP POP POP POP POP JUMP JUMPDEST PUSH1 0x3 DUP2 DUP2 SLOAD DUP2 LT PUSH2 0x12F1 JUMPI PUSH1 0x0 DUP1 REVERT JUMPDEST SWAP1 PUSH1 0x0 MSTORE PUSH1 0x20 PUSH1 0x0 KECCAK256 ADD PUSH1 0x0 SWAP2 POP SWAP1 POP DUP1 SLOAD PUSH2 0x130C SWAP1 PUSH2 0x1CE8 JUMP JUMPDEST DUP1 PUSH1 0x1F ADD PUSH1 0x20 DUP1 SWAP2 DIV MUL PUSH1 0x20 ADD PUSH1 0x40 MLOAD SWAP1 DUP2 ADD PUSH1 0x40 MSTORE DUP1 SWAP3 SWAP2 SWAP1 DUP2 DUP2 MSTORE PUSH1 0x20 ADD DUP3 DUP1 SLOAD PUSH2 0x1338 SWAP1 PUSH2 0x1CE8 JUMP JUMPDEST DUP1 ISZERO PUSH2 0x1385 JUMPI DUP1 PUSH1 0x1F LT PUSH2 0x135A JUMPI PUSH2 0x100 DUP1 DUP4 SLOAD DIV MUL DUP4 MSTORE SWAP2 PUSH1 0x20 ADD SWAP2 PUSH2 0x1385 JUMP JUMPDEST DUP3 ADD SWAP2 SWAP1 PUSH1 0x0 MSTORE PUSH1 0x20 PUSH1 0x0 KECCAK256 SWAP1 JUMPDEST DUP2 SLOAD DUP2 MSTORE SWAP1 PUSH1 0x1 ADD SWAP1 PUSH1 0x20 ADD DUP1 DUP4 GT PUSH2 0x1368 JUMPI DUP3 SWAP1 SUB PUSH1 0x1F AND DUP3 ADD SWAP2 JUMPDEST POP POP POP POP POP DUP2 JUMP JUMPDEST PUSH1 0x0 PUSH1 0x40 MLOAD SWAP1 POP SWAP1 JUMP JUMPDEST PUSH1 0x0 DUP1 REVERT JUMPDEST PUSH1 0x0 DUP1 REVERT JUMPDEST PUSH1 0x0 DUP1 REVERT JUMPDEST PUSH1 0x0 DUP1 REVERT JUMPDEST PUSH1 0x0 DUP1 REVERT JUMPDEST PUSH1 0x0 DUP1 DUP4 PUSH1 0x1F DUP5 ADD SLT PUSH2 0x13C6 JUMPI PUSH2 0x13C5 PUSH2 0x13A1 JUMP JUMPDEST JUMPDEST DUP3 CALLDATALOAD SWAP1 POP PUSH8 0xFFFFFFFFFFFFFFFF DUP2 GT ISZERO PUSH2 0x13E3 JUMPI PUSH2 0x13E2 PUSH2 0x13A6 JUMP JUMPDEST JUMPDEST PUSH1 0x20 DUP4 ADD SWAP2 POP DUP4 PUSH1 0x1 DUP3 MUL DUP4 ADD GT ISZERO PUSH2 0x13FF JUMPI PUSH2 0x13FE PUSH2 0x13AB JUMP JUMPDEST JUMPDEST SWAP3 POP SWAP3 SWAP1 POP JUMP JUMPDEST PUSH1 0x0 DUP2 SWAP1 POP SWAP2 SWAP1 POP JUMP JUMPDEST PUSH2 0x1419 DUP2 PUSH2 0x1406 JUMP JUMPDEST DUP2 EQ PUSH2 0x1424 JUMPI PUSH1 0x0 DUP1 REVERT JUMPDEST POP JUMP JUMPDEST PUSH1 0x0 DUP2 CALLDATALOAD SWAP1 POP PUSH2 0x1436 DUP2 PUSH2 0x1410 JUMP JUMPDEST SWAP3 SWAP2 POP POP JUMP JUMPDEST PUSH1 0x0 DUP1 PUSH1 0x0 PUSH1 0x40 DUP5 DUP7 SUB SLT ISZERO PUSH2 0x1455 JUMPI PUSH2 0x1454 PUSH2 0x1397 JUMP JUMPDEST JUMPDEST PUSH1 0x0 DUP5 ADD CALLDATALOAD PUSH8 0xFFFFFFFFFFFFFFFF DUP2 GT ISZERO PUSH2 0x1473 JUMPI PUSH2 0x1472 PUSH2 0x139C JUMP JUMPDEST JUMPDEST PUSH2 0x147F DUP7 DUP3 DUP8 ADD PUSH2 0x13B0 JUMP JUMPDEST SWAP4 POP SWAP4 POP POP PUSH1 0x20 PUSH2 0x1492 DUP7 DUP3 DUP8 ADD PUSH2 0x1427 JUMP JUMPDEST SWAP2 POP POP SWAP3 POP SWAP3 POP SWAP3 JUMP JUMPDEST PUSH2 0x14A5 DUP2 PUSH2 0x1406 JUMP JUMPDEST DUP3 MSTORE POP POP JUMP JUMPDEST PUSH1 0x0 DUP2 SWAP1 POP SWAP2 SWAP1 POP JUMP JUMPDEST PUSH2 0x14BE DUP2 PUSH2 0x14AB JUMP JUMPDEST DUP3 MSTORE POP POP JUMP JUMPDEST PUSH1 0x0 DUP2 MLOAD SWAP1 POP SWAP2 SWAP1 POP JUMP JUMPDEST PUSH1 0x0 DUP3 DUP3 MSTORE PUSH1 0x20 DUP3 ADD SWAP1 POP SWAP3 SWAP2 POP POP JUMP JUMPDEST PUSH1 0x0 JUMPDEST DUP4 DUP2 LT ISZERO PUSH2 0x14FE JUMPI DUP1 DUP3 ADD MLOAD DUP2 DUP5 ADD MSTORE PUSH1 0x20 DUP2 ADD SWAP1 POP PUSH2 0x14E3 JUMP JUMPDEST PUSH1 0x0 DUP5 DUP5 ADD MSTORE POP POP POP POP JUMP JUMPDEST PUSH1 0x0 PUSH1 0x1F NOT PUSH1 0x1F DUP4 ADD AND SWAP1 POP SWAP2 SWAP1 POP JUMP JUMPDEST PUSH1 0x0 PUSH2 0x1526 DUP3 PUSH2 0x14C4 JUMP JUMPDEST PUSH2 0x1530 DUP2 DUP6 PUSH2 0x14CF JUMP JUMPDEST SWAP4 POP PUSH2 0x1540 DUP2 DUP6 PUSH1 0x20 DUP7 ADD PUSH2 0x14E0 JUMP JUMPDEST PUSH2 0x1549 DUP2 PUSH2 0x150A JUMP JUMPDEST DUP5 ADD SWAP2 POP POP SWAP3 SWAP2 POP POP JUMP JUMPDEST PUSH1 0x0 PUSH1 0x80 DUP3 ADD SWAP1 POP PUSH2 0x1569 PUSH1 0x0 DUP4 ADD DUP8 PUSH2 0x149C JUMP JUMPDEST PUSH2 0x1576 PUSH1 0x20 DUP4 ADD DUP7 PUSH2 0x14B5 JUMP JUMPDEST PUSH2 0x1583 PUSH1 0x40 DUP4 ADD DUP6 PUSH2 0x149C JUMP JUMPDEST DUP2 DUP2 SUB PUSH1 0x60 DUP4 ADD MSTORE PUSH2 0x1595 DUP2 DUP5 PUSH2 0x151B JUMP JUMPDEST SWAP1 POP SWAP6 SWAP5 POP POP POP POP POP JUMP JUMPDEST PUSH1 0x0 PUSH1 0x20 DUP3 ADD SWAP1 POP PUSH2 0x15B5 PUSH1 0x0 DUP4 ADD DUP5 PUSH2 0x149C JUMP JUMPDEST SWAP3 SWAP2 POP POP JUMP JUMPDEST PUSH1 0x0 DUP1 REVERT JUMPDEST PUSH32 0x4E487B7100000000000000000000000000000000000000000000000000000000 PUSH1 0x0 MSTORE PUSH1 0x41 PUSH1 0x4 MSTORE PUSH1 0x24 PUSH1 0x0 REVERT JUMPDEST PUSH2 0x15F8 DUP3 PUSH2 0x150A JUMP JUMPDEST DUP2 ADD DUP2 DUP2 LT PUSH8 0xFFFFFFFFFFFFFFFF DUP3 GT OR ISZERO PUSH2 0x1617 JUMPI PUSH2 0x1616 PUSH2 0x15C0 JUMP JUMPDEST JUMPDEST DUP1 PUSH1 0x40 MSTORE POP POP POP JUMP JUMPDEST PUSH1 0x0 PUSH2 0x162A PUSH2 0x138D JUMP JUMPDEST SWAP1 POP PUSH2 0x1636 DUP3 DUP3 PUSH2 0x15EF JUMP JUMPDEST SWAP2 SWAP1 POP JUMP JUMPDEST PUSH1 0x0 PUSH8 0xFFFFFFFFFFFFFFFF DUP3 GT ISZERO PUSH2 0x1656 JUMPI PUSH2 0x1655 PUSH2 0x15C0 JUMP JUMPDEST JUMPDEST PUSH2 0x165F DUP3 PUSH2 0x150A JUMP JUMPDEST SWAP1 POP PUSH1 0x20 DUP2 ADD SWAP1 POP SWAP2 SWAP1 POP JUMP JUMPDEST DUP3 DUP2 DUP4 CALLDATACOPY PUSH1 0x0 DUP4 DUP4 ADD MSTORE POP POP POP JUMP JUMPDEST PUSH1 0x0 PUSH2 0x168E PUSH2 0x1689 DUP5 PUSH2 0x163B JUMP JUMPDEST PUSH2 0x1620 JUMP JUMPDEST SWAP1 POP DUP3 DUP2 MSTORE PUSH1 0x20 DUP2 ADD DUP5 DUP5 DUP5 ADD GT ISZERO PUSH2 0x16AA JUMPI PUSH2 0x16A9 PUSH2 0x15BB JUMP JUMPDEST JUMPDEST PUSH2 0x16B5 DUP5 DUP3 DUP6 PUSH2 0x166C JUMP JUMPDEST POP SWAP4 SWAP3 POP POP POP JUMP JUMPDEST PUSH1 0x0 DUP3 PUSH1 0x1F DUP4 ADD SLT PUSH2 0x16D2 JUMPI PUSH2 0x16D1 PUSH2 0x13A1 JUMP JUMPDEST JUMPDEST DUP2 CALLDATALOAD PUSH2 0x16E2 DUP5 DUP3 PUSH1 0x20 DUP7 ADD PUSH2 0x167B JUMP JUMPDEST SWAP2 POP POP SWAP3 SWAP2 POP POP JUMP JUMPDEST PUSH1 0x0 PUSH1 0x20 DUP3 DUP5 SUB SLT ISZERO PUSH2 0x1701 JUMPI PUSH2 0x1700 PUSH2 0x1397 JUMP JUMPDEST JUMPDEST PUSH1 0x0 DUP3 ADD CALLDATALOAD PUSH8 0xFFFFFFFFFFFFFFFF DUP2 GT ISZERO PUSH2 0x171F JUMPI PUSH2 0x171E PUSH2 0x139C JUMP JUMPDEST JUMPDEST PUSH2 0x172B DUP5 DUP3 DUP6 ADD PUSH2 0x16BD JUMP JUMPDEST SWAP2 POP POP SWAP3 SWAP2 POP POP JUMP JUMPDEST PUSH1 0x0 DUP2 ISZERO ISZERO SWAP1 POP SWAP2 SWAP1 POP JUMP JUMPDEST PUSH2 0x1749 DUP2 PUSH2 0x1734 JUMP JUMPDEST DUP3 MSTORE POP POP JUMP JUMPDEST PUSH1 0x0 PUSH1 0x20 DUP3 ADD SWAP1 POP PUSH2 0x1764 PUSH1 0x0 DUP4 ADD DUP5 PUSH2 0x1740 JUMP JUMPDEST SWAP3 SWAP2 POP POP JUMP JUMPDEST PUSH1 0x0 PUSH20 0xFFFFFFFFFFFFFFFFFFFFFFFFFFFFFFFFFFFFFFFF DUP3 AND SWAP1 POP SWAP2 SWAP1 POP JUMP JUMPDEST PUSH1 0x0 PUSH2 0x1795 DUP3 PUSH2 0x176A JUMP JUMPDEST SWAP1 POP SWAP2 SWAP1 POP JUMP JUMPDEST PUSH2 0x17A5 DUP2 PUSH2 0x178A JUMP JUMPDEST DUP2 EQ PUSH2 0x17B0 JUMPI PUSH1 0x0 DUP1 REVERT JUMPDEST POP JUMP JUMPDEST PUSH1 0x0 DUP2 CALLDATALOAD SWAP1 POP PUSH2 0x17C2 DUP2 PUSH2 0x179C JUMP JUMPDEST SWAP3 SWAP2 POP POP JUMP JUMPDEST PUSH1 0x0 PUSH1 0x20 DUP3 DUP5 SUB SLT ISZERO PUSH2 0x17DE JUMPI PUSH2 0x17DD PUSH2 0x1397 JUMP JUMPDEST JUMPDEST PUSH1 0x0 PUSH2 0x17EC DUP5 DUP3 DUP6 ADD PUSH2 0x17B3 JUMP JUMPDEST SWAP2 POP POP SWAP3 SWAP2 POP POP JUMP JUMPDEST PUSH2 0x17FE DUP2 PUSH2 0x178A JUMP JUMPDEST DUP3 MSTORE POP POP JUMP JUMPDEST PUSH1 0x0 PUSH1 0x20 DUP3 ADD SWAP1 POP PUSH2 0x1819 PUSH1 0x0 DUP4 ADD DUP5 PUSH2 0x17F5 JUMP JUMPDEST SWAP3 SWAP2 POP POP JUMP JUMPDEST PUSH1 0x0 DUP1 PUSH1 0x40 DUP4 DUP6 SUB SLT ISZERO PUSH2 0x1836 JUMPI PUSH2 0x1835 PUSH2 0x1397 JUMP JUMPDEST JUMPDEST PUSH1 0x0 DUP4 ADD CALLDATALOAD PUSH8 0xFFFFFFFFFFFFFFFF DUP2 GT ISZERO PUSH2 0x1854 JUMPI PUSH2 0x1853 PUSH2 0x139C JUMP JUMPDEST JUMPDEST PUSH2 0x1860 DUP6 DUP3 DUP7 ADD PUSH2 0x16BD JUMP JUMPDEST SWAP3 POP POP PUSH1 0x20 PUSH2 0x1871 DUP6 DUP3 DUP7 ADD PUSH2 0x1427 JUMP JUMPDEST SWAP2 POP POP SWAP3 POP SWAP3 SWAP1 POP JUMP JUMPDEST PUSH2 0x1884 DUP2 PUSH2 0x14AB JUMP JUMPDEST DUP2 EQ PUSH2 0x188F JUMPI PUSH1 0x0 DUP1 REVERT JUMPDEST POP JUMP JUMPDEST PUSH1 0x0 DUP2 CALLDATALOAD SWAP1 POP PUSH2 0x18A1 DUP2 PUSH2 0x187B JUMP JUMPDEST SWAP3 SWAP2 POP POP JUMP JUMPDEST PUSH1 0x0 DUP1 PUSH1 0x0 DUP1 PUSH1 0x0 DUP1 PUSH1 0x80 DUP8 DUP10 SUB SLT ISZERO PUSH2 0x18C4 JUMPI PUSH2 0x18C3 PUSH2 0x1397 JUMP JUMPDEST JUMPDEST PUSH1 0x0 DUP8 ADD CALLDATALOAD PUSH8 0xFFFFFFFFFFFFFFFF DUP2 GT ISZERO PUSH2 0x18E2 JUMPI PUSH2 0x18E1 PUSH2 0x139C JUMP JUMPDEST JUMPDEST PUSH2 0x18EE DUP10 DUP3 DUP11 ADD PUSH2 0x13B0 JUMP JUMPDEST SWAP7 POP SWAP7 POP POP PUSH1 0x20 PUSH2 0x1901 DUP10 DUP3 DUP11 ADD PUSH2 0x1892 JUMP JUMPDEST SWAP5 POP POP PUSH1 0x40 PUSH2 0x1912 DUP10 DUP3 DUP11 ADD PUSH2 0x1427 JUMP JUMPDEST SWAP4 POP POP PUSH1 0x60 DUP8 ADD CALLDATALOAD PUSH8 0xFFFFFFFFFFFFFFFF DUP2 GT ISZERO PUSH2 0x1933 JUMPI PUSH2 0x1932 PUSH2 0x139C JUMP JUMPDEST JUMPDEST PUSH2 0x193F DUP10 DUP3 DUP11 ADD PUSH2 0x13B0 JUMP JUMPDEST SWAP3 POP SWAP3 POP POP SWAP3 SWAP6 POP SWAP3 SWAP6 POP SWAP3 SWAP6 JUMP JUMPDEST PUSH1 0x0 DUP1 PUSH1 0x20 DUP4 DUP6 SUB SLT ISZERO PUSH2 0x1965 JUMPI PUSH2 0x1964 PUSH2 0x1397 JUMP JUMPDEST JUMPDEST PUSH1 0x0 DUP4 ADD CALLDATALOAD PUSH8 0xFFFFFFFFFFFFFFFF DUP2 GT ISZERO PUSH2 0x1983 JUMPI PUSH2 0x1982 PUSH2 0x139C JUMP JUMPDEST JUMPDEST PUSH2 0x198F DUP6 DUP3 DUP7 ADD PUSH2 0x13B0 JUMP JUMPDEST SWAP3 POP SWAP3 POP POP SWAP3 POP SWAP3 SWAP1 POP JUMP JUMPDEST PUSH1 0x0 DUP1 DUP4 PUSH1 0x1F DUP5 ADD SLT PUSH2 0x19B1 JUMPI PUSH2 0x19B0 PUSH2 0x13A1 JUMP JUMPDEST JUMPDEST DUP3 CALLDATALOAD SWAP1 POP PUSH8 0xFFFFFFFFFFFFFFFF DUP2 GT ISZERO PUSH2 0x19CE JUMPI PUSH2 0x19CD PUSH2 0x13A6 JUMP JUMPDEST JUMPDEST PUSH1 0x20 DUP4 ADD SWAP2 POP DUP4 PUSH1 0x20 DUP3 MUL DUP4 ADD GT ISZERO PUSH2 0x19EA JUMPI PUSH2 0x19E9 PUSH2 0x13AB JUMP JUMPDEST JUMPDEST SWAP3 POP SWAP3 SWAP1 POP JUMP JUMPDEST PUSH1 0x0 DUP1 DUP4 PUSH1 0x1F DUP5 ADD SLT PUSH2 0x1A07 JUMPI PUSH2 0x1A06 PUSH2 0x13A1 JUMP JUMPDEST JUMPDEST DUP3 CALLDATALOAD SWAP1 POP PUSH8 0xFFFFFFFFFFFFFFFF DUP2 GT ISZERO PUSH2 0x1A24 JUMPI PUSH2 0x1A23 PUSH2 0x13A6 JUMP JUMPDEST JUMPDEST PUSH1 0x20 DUP4 ADD SWAP2 POP DUP4 PUSH1 0x20 DUP3 MUL DUP4 ADD GT ISZERO PUSH2 0x1A40 JUMPI PUSH2 0x1A3F PUSH2 0x13AB JUMP JUMPDEST JUMPDEST SWAP3 POP SWAP3 SWAP1 POP JUMP JUMPDEST PUSH1 0x0 DUP1 DUP4 PUSH1 0x1F DUP5 ADD SLT PUSH2 0x1A5D JUMPI PUSH2 0x1A5C PUSH2 0x13A1 JUMP JUMPDEST JUMPDEST DUP3 CALLDATALOAD SWAP1 POP PUSH8 0xFFFFFFFFFFFFFFFF DUP2 GT ISZERO PUSH2 0x1A7A JUMPI PUSH2 0x1A79 PUSH2 0x13A6 JUMP JUMPDEST JUMPDEST PUSH1 0x20 DUP4 ADD SWAP2 POP DUP4 PUSH1 0x20 DUP3 MUL DUP4 ADD GT ISZERO PUSH2 0x1A96 JUMPI PUSH2 0x1A95 PUSH2 0x13AB JUMP JUMPDEST JUMPDEST SWAP3 POP SWAP3 SWAP1 POP JUMP JUMPDEST PUSH1 0x0 DUP1 PUSH1 0x0 DUP1 PUSH1 0x0 DUP1 PUSH1 0x0 DUP1 PUSH1 0x80 DUP10 DUP12 SUB SLT ISZERO PUSH2 0x1ABD JUMPI PUSH2 0x1ABC PUSH2 0x1397 JUMP JUMPDEST JUMPDEST PUSH1 0x0 DUP10 ADD CALLDATALOAD PUSH8 0xFFFFFFFFFFFFFFFF DUP2 GT ISZERO PUSH2 0x1ADB JUMPI PUSH2 0x1ADA PUSH2 0x139C JUMP JUMPDEST JUMPDEST PUSH2 0x1AE7 DUP12 DUP3 DUP13 ADD PUSH2 0x199B JUMP JUMPDEST SWAP9 POP SWAP9 POP POP PUSH1 0x20 DUP10 ADD CALLDATALOAD PUSH8 0xFFFFFFFFFFFFFFFF DUP2 GT ISZERO PUSH2 0x1B0A JUMPI PUSH2 0x1B09 PUSH2 0x139C JUMP JUMPDEST JUMPDEST PUSH2 0x1B16 DUP12 DUP3 DUP13 ADD PUSH2 0x19F1 JUMP JUMPDEST SWAP7 POP SWAP7 POP POP PUSH1 0x40 DUP10 ADD CALLDATALOAD PUSH8 0xFFFFFFFFFFFFFFFF DUP2 GT ISZERO PUSH2 0x1B39 JUMPI PUSH2 0x1B38 PUSH2 0x139C JUMP JUMPDEST JUMPDEST PUSH2 0x1B45 DUP12 DUP3 DUP13 ADD PUSH2 0x1A47 JUMP JUMPDEST SWAP5 POP SWAP5 POP POP PUSH1 0x60 DUP10 ADD CALLDATALOAD PUSH8 0xFFFFFFFFFFFFFFFF DUP2 GT ISZERO PUSH2 0x1B68 JUMPI PUSH2 0x1B67 PUSH2 0x139C JUMP JUMPDEST JUMPDEST PUSH2 0x1B74 DUP12 DUP3 DUP13 ADD PUSH2 0x13B0 JUMP JUMPDEST SWAP3 POP SWAP3 POP POP SWAP3 SWAP6 SWAP9 POP SWAP3 SWAP6 SWAP9 SWAP1 SWAP4 SWAP7 POP JUMP JUMPDEST PUSH1 0x0 PUSH1 0x20 DUP3 DUP5 SUB SLT ISZERO PUSH2 0x1B9C JUMPI PUSH2 0x1B9B PUSH2 0x1397 JUMP JUMPDEST JUMPDEST PUSH1 0x0 PUSH2 0x1BAA DUP5 DUP3 DUP6 ADD PUSH2 0x1427 JUMP JUMPDEST SWAP2 POP POP SWAP3 SWAP2 POP POP JUMP JUMPDEST PUSH1 0x0 PUSH1 0x20 DUP3 ADD SWAP1 POP DUP2 DUP2 SUB PUSH1 0x0 DUP4 ADD MSTORE PUSH2 0x1BCD DUP2 DUP5 PUSH2 0x151B JUMP JUMPDEST SWAP1 POP SWAP3 SWAP2 POP POP JUMP JUMPDEST PUSH1 0x0 DUP2 SWAP1 POP SWAP3 SWAP2 POP POP JUMP JUMPDEST PUSH1 0x0 PUSH2 0x1BEC DUP4 DUP6 PUSH2 0x1BD5 JUMP JUMPDEST SWAP4 POP PUSH2 0x1BF9 DUP4 DUP6 DUP5 PUSH2 0x166C JUMP JUMPDEST DUP3 DUP5 ADD SWAP1 POP SWAP4 SWAP3 POP POP POP JUMP JUMPDEST PUSH1 0x0 PUSH2 0x1C12 DUP3 DUP5 DUP7 PUSH2 0x1BE0 JUMP JUMPDEST SWAP2 POP DUP2 SWAP1 POP SWAP4 SWAP3 POP POP POP JUMP JUMPDEST PUSH32 0x496E646578206F7574206F6620626F756E647300000000000000000000000000 PUSH1 0x0 DUP3 ADD MSTORE POP JUMP JUMPDEST PUSH1 0x0 PUSH2 0x1C54 PUSH1 0x13 DUP4 PUSH2 0x14CF JUMP JUMPDEST SWAP2 POP PUSH2 0x1C5F DUP3 PUSH2 0x1C1E JUMP JUMPDEST PUSH1 0x20 DUP3 ADD SWAP1 POP SWAP2 SWAP1 POP JUMP JUMPDEST PUSH1 0x0 PUSH1 0x20 DUP3 ADD SWAP1 POP DUP2 DUP2 SUB PUSH1 0x0 DUP4 ADD MSTORE PUSH2 0x1C83 DUP2 PUSH2 0x1C47 JUMP JUMPDEST SWAP1 POP SWAP2 SWAP1 POP JUMP JUMPDEST PUSH32 0x4E487B7100000000000000000000000000000000000000000000000000000000 PUSH1 0x0 MSTORE PUSH1 0x32 PUSH1 0x4 MSTORE PUSH1 0x24 PUSH1 0x0 REVERT JUMPDEST PUSH32 0x4E487B7100000000000000000000000000000000000000000000000000000000 PUSH1 0x0 MSTORE PUSH1 0x22 PUSH1 0x4 MSTORE PUSH1 0x24 PUSH1 0x0 REVERT JUMPDEST PUSH1 0x0 PUSH1 0x2 DUP3 DIV SWAP1 POP PUSH1 0x1 DUP3 AND DUP1 PUSH2 0x1D00 JUMPI PUSH1 0x7F DUP3 AND SWAP2 POP JUMPDEST PUSH1 0x20 DUP3 LT DUP2 SUB PUSH2 0x1D13 JUMPI PUSH2 0x1D12 PUSH2 0x1CB9 JUMP JUMPDEST JUMPDEST POP SWAP2 SWAP1 POP JUMP JUMPDEST PUSH32 0x4F6E6C79206F7261636C652063616E207075626C697368000000000000000000 PUSH1 0x0 DUP3 ADD MSTORE POP JUMP JUMPDEST PUSH1 0x0 PUSH2 0x1D4F PUSH1 0x17 DUP4 PUSH2 0x14CF JUMP JUMPDEST SWAP2 POP PUSH2 0x1D5A DUP3 PUSH2 0x1D19 JUMP JUMPDEST PUSH1 0x20 DUP3 ADD SWAP1 POP SWAP2 SWAP1 POP JUMP JUMPDEST PUSH1 0x0 PUSH1 0x20 DUP3 ADD SWAP1 POP DUP2 DUP2 SUB PUSH1 0x0 DUP4 ADD MSTORE PUSH2 0x1D7E DUP2 PUSH2 0x1D42 JUMP JUMPDEST SWAP1 POP SWAP2 SWAP1 POP JUMP JUMPDEST PUSH32 0x496E76616C696420616464726573730000000000000000000000000000000000 PUSH1 0x0 DUP3 ADD MSTORE POP JUMP JUMPDEST PUSH1 0x0 PUSH2 0x1DBB PUSH1 0xF DUP4 PUSH2 0x14CF JUMP JUMPDEST SWAP2 POP PUSH2 0x1DC6 DUP3 PUSH2 0x1D85 JUMP JUMPDEST PUSH1 0x20 DUP3 ADD SWAP1 POP SWAP2 SWAP1 POP JUMP JUMPDEST PUSH1 0x0 PUSH1 0x20 DUP3 ADD SWAP1 POP DUP2 DUP2 SUB PUSH1 0x0 DUP4 ADD MSTORE PUSH2 0x1DEA DUP2 PUSH2 0x1DAE JUMP JUMPDEST SWAP1 POP SWAP2 SWAP1 POP JUMP JUMPDEST PUSH1 0x0 DUP2 SWAP1 POP DUP2 PUSH1 0x0 MSTORE PUSH1 0x20 PUSH1 0x0 KECCAK256 SWAP1 POP SWAP2 SWAP1 POP JUMP JUMPDEST PUSH1 0x0 PUSH1 0x20 PUSH1 0x1F DUP4 ADD DIV SWAP1 POP SWAP2 SWAP1 POP JUMP JUMPDEST PUSH1 0x0 DUP3 DUP3 SHL SWAP1 POP SWAP3 SWAP2 POP POP JUMP JUMPDEST PUSH1 0x0 PUSH1 0x8 DUP4 MUL PUSH2 0x1E53 PUSH32 0xFFFFFFFFFFFFFFFFFFFFFFFFFFFFFFFFFFFFFFFFFFFFFFFFFFFFFFFFFFFFFFFF DUP3 PUSH2 0x1E16 JUMP JUMPDEST PUSH2 0x1E5D DUP7 DUP4 PUSH2 0x1E16 JUMP JUMPDEST SWAP6 POP DUP1 NOT DUP5 AND SWAP4 POP DUP1 DUP7 AND DUP5 OR SWAP3 POP POP POP SWAP4 SWAP3 POP POP POP JUMP JUMPDEST PUSH1 0x0 DUP2 SWAP1 POP SWAP2 SWAP1 POP JUMP JUMPDEST PUSH1 0x0 PUSH2 0x1E9A PUSH2 0x1E95 PUSH2 0x1E90 DUP5 PUSH2 0x1406 JUMP JUMPDEST PUSH2 0x1E75 JUMP JUMPDEST PUSH2 0x1406 JUMP JUMPDEST SWAP1 POP SWAP2 SWAP1 POP JUMP JUMPDEST PUSH1 0x0 DUP2 SWAP1 POP SWAP2 SWAP1 POP JUMP JUMPDEST PUSH2 0x1EB4 DUP4 PUSH2 0x1E7F JUMP JUMPDEST PUSH2 0x1EC8 PUSH2 0x1EC0 DUP3 PUSH2 0x1EA1 JUMP JUMPDEST DUP5 DUP5 SLOAD PUSH2 0x1E23 JUMP JUMPDEST DUP3 SSTORE POP POP POP POP JUMP JUMPDEST PUSH1 0x0 SWAP1 JUMP JUMPDEST PUSH2 0x1EDD PUSH2 0x1ED0 JUMP JUMPDEST PUSH2 0x1EE8 DUP2 DUP5 DUP5 PUSH2 0x1EAB JUMP JUMPDEST POP POP POP JUMP JUMPDEST JUMPDEST DUP2 DUP2 LT ISZERO PUSH2 0x1F0C JUMPI PUSH2 0x1F01 PUSH1 0x0 DUP3 PUSH2 0x1ED5 JUMP JUMPDEST PUSH1 0x1 DUP2 ADD SWAP1 POP PUSH2 0x1EEE JUMP JUMPDEST POP POP JUMP JUMPDEST PUSH1 0x1F DUP3 GT ISZERO PUSH2 0x1F51 JUMPI PUSH2 0x1F22 DUP2 PUSH2 0x1DF1 JUMP JUMPDEST PUSH2 0x1F2B DUP5 PUSH2 0x1E06 JUMP JUMPDEST DUP2 ADD PUSH1 0x20 DUP6 LT ISZERO PUSH2 0x1F3A JUMPI DUP2 SWAP1 POP JUMPDEST PUSH2 0x1F4E PUSH2 0x1F46 DUP6 PUSH2 0x1E06 JUMP JUMPDEST DUP4 ADD DUP3 PUSH2 0x1EED JUMP JUMPDEST POP POP JUMPDEST POP POP POP JUMP JUMPDEST PUSH1 0x0 DUP3 DUP3 SHR SWAP1 POP SWAP3 SWAP2 POP POP JUMP JUMPDEST PUSH1 0x0 PUSH2 0x1F74 PUSH1 0x0 NOT DUP5 PUSH1 0x8 MUL PUSH2 0x1F56 JUMP JUMPDEST NOT DUP1 DUP4 AND SWAP2 POP POP SWAP3 SWAP2 POP POP JUMP JUMPDEST PUSH1 0x0 PUSH2 0x1F8D DUP4 DUP4 PUSH2 0x1F63 JUMP JUMPDEST SWAP2 POP DUP3 PUSH1 0x2 MUL DUP3 OR SWAP1 POP SWAP3 SWAP2 POP POP JUMP JUMPDEST PUSH2 0x1FA6 DUP3 PUSH2 0x14C4 JUMP JUMPDEST PUSH8 0xFFFFFFFFFFFFFFFF DUP2 GT ISZERO PUSH2 0x1FBF JUMPI PUSH2 0x1FBE PUSH2 0x15C0 JUMP JUMPDEST JUMPDEST PUSH2 0x1FC9 DUP3 SLOAD PUSH2 0x1CE8 JUMP JUMPDEST PUSH2 0x1FD4 DUP3 DUP3 DUP6 PUSH2 0x1F10 JUMP JUMPDEST PUSH1 0x0 PUSH1 0x20 SWAP1 POP PUSH1 0x1F DUP4 GT PUSH1 0x1 DUP2 EQ PUSH2 0x2007 JUMPI PUSH1 0x0 DUP5 ISZERO PUSH2 0x1FF5 JUMPI DUP3 DUP8 ADD MLOAD SWAP1 POP JUMPDEST PUSH2 0x1FFF DUP6 DUP3 PUSH2 0x1F81 JUMP JUMPDEST DUP7 SSTORE POP PUSH2 0x2067 JUMP JUMPDEST PUSH1 0x1F NOT DUP5 AND PUSH2 0x2015 DUP7 PUSH2 0x1DF1 JUMP JUMPDEST PUSH1 0x0 JUMPDEST DUP3 DUP2 LT ISZERO PUSH2 0x203D JUMPI DUP5 DUP10 ADD MLOAD DUP3 SSTORE PUSH1 0x1 DUP3 ADD SWAP2 POP PUSH1 0x20 DUP6 ADD SWAP5 POP PUSH1 0x20 DUP2 ADD SWAP1 POP PUSH2 0x2018 JUMP JUMPDEST DUP7 DUP4 LT ISZERO PUSH2 0x205A JUMPI DUP5 DUP10 ADD MLOAD PUSH2 0x2056 PUSH1 0x1F DUP10 AND DUP3 PUSH2 0x1F63 JUMP JUMPDEST DUP4 SSTORE POP JUMPDEST PUSH1 0x1 PUSH1 0x2 DUP9 MUL ADD DUP9 SSTORE POP POP POP JUMPDEST POP POP POP POP POP POP JUMP JUMPDEST PUSH1 0x0 DUP3 SWAP1 POP SWAP3 SWAP2 POP POP JUMP JUMPDEST PUSH2 0x2084 DUP4 DUP4 PUSH2 0x206F JUMP JUMPDEST PUSH8 0xFFFFFFFFFFFFFFFF DUP2 GT ISZERO PUSH2 0x209D JUMPI PUSH2 0x209C PUSH2 0x15C0 JUMP JUMPDEST JUMPDEST PUSH2 0x20A7 DUP3 SLOAD PUSH2 0x1CE8 JUMP JUMPDEST PUSH2 0x20B2 DUP3 DUP3 DUP6 PUSH2 0x1F10 JUMP JUMPDEST PUSH1 0x0 PUSH1 0x1F DUP4 GT PUSH1 0x1 DUP2 EQ PUSH2 0x20E1 JUMPI PUSH1 0x0 DUP5 ISZERO PUSH2 0x20CF JUMPI DUP3 DUP8 ADD CALLDATALOAD SWAP1 POP JUMPDEST PUSH2 0x20D9 DUP6 DUP3 PUSH2 0x1F81 JUMP JUMPDEST DUP7 SSTORE POP PUSH2 0x2141 JUMP JUMPDEST PUSH1 0x1F NOT DUP5 AND PUSH2 0x20EF DUP7 PUSH2 0x1DF1 JUMP JUMPDEST PUSH1 0x0 JUMPDEST DUP3 DUP2 LT ISZERO PUSH2 0x2117 JUMPI DUP5 DUP10 ADD CALLDATALOAD DUP3 SSTORE PUSH1 0x1 DUP3 ADD SWAP2 POP PUSH1 0x20 DUP6 ADD SWAP5 POP PUSH1 0x20 DUP2 ADD SWAP1 POP PUSH2 0x20F2 JUMP JUMPDEST DUP7 DUP4 LT ISZERO PUSH2 0x2134 JUMPI DUP5 DUP10 ADD CALLDATALOAD PUSH2 0x2130 PUSH1 0x1F DUP10 AND DUP3 PUSH2 0x1F63 JUMP JUMPDEST DUP4 SSTORE POP JUMPDEST PUSH1 0x1 PUSH1 0x2 DUP9 MUL ADD DUP9 SSTORE POP POP POP JUMPDEST POP POP POP POP POP POP POP JUMP JUMPDEST PUSH32 0x4E487B7100000000000000000000000000000000000000000000000000000000 PUSH1 0x0 MSTORE PUSH1 0x11 PUSH1 0x4 MSTORE PUSH1 0x24 PUSH1 0x0 REVERT JUMPDEST PUSH1 0x0 PUSH2 0x2184 DUP3 PUSH2 0x1406 JUMP JUMPDEST SWAP2 POP PUSH2 0x218F DUP4 PUSH2 0x1406 JUMP JUMPDEST SWAP3 POP DUP3 DUP3 SUB SWAP1 POP DUP2 DUP2 GT ISZERO PUSH2 0x21A7 JUMPI PUSH2 0x21A6 PUSH2 0x214A JUMP JUMPDEST JUMPDEST SWAP3 SWAP2 POP POP JUMP JUMPDEST PUSH1 0x0 PUSH2 0x21B8 DUP3 PUSH2 0x1406 JUMP JUMPDEST SWAP2 POP PUSH2 0x21C3 DUP4 PUSH2 0x1406 JUMP JUMPDEST SWAP3 POP DUP3 DUP3 ADD SWAP1 POP DUP1 DUP3 GT ISZERO PUSH2 0x21DB JUMPI PUSH2 0x21DA PUSH2 0x214A JUMP JUMPDEST JUMPDEST SWAP3 SWAP2 POP POP JUMP JUMPDEST PUSH1 0x0 DUP2 SLOAD SWAP1 POP PUSH2 0x21F0 DUP2 PUSH2 0x1CE8 JUMP JUMPDEST SWAP1 POP SWAP2 SWAP1 POP JUMP JUMPDEST DUP2 DUP2 SUB PUSH2 0x2205 JUMPI POP POP PUSH2 0x22DD JUMP JUMPDEST PUSH2 0x220E DUP3 PUSH2 0x21E1 JUMP JUMPDEST PUSH8 0xFFFFFFFFFFFFFFFF DUP2 GT ISZERO PUSH2 0x2227 JUMPI PUSH2 0x2226 PUSH2 0x15C0 JUMP JUMPDEST JUMPDEST PUSH2 0x2231 DUP3 SLOAD PUSH2 0x1CE8 JUMP JUMPDEST PUSH2 0x223C DUP3 DUP3 DUP6 PUSH2 0x1F10 JUMP JUMPDEST PUSH1 0x0 PUSH1 0x1F DUP4 GT PUSH1 0x1 DUP2 EQ PUSH2 0x226B JUMPI PUSH1 0x0 DUP5 ISZERO PUSH2 0x2259 JUMPI DUP3 DUP8 ADD SLOAD SWAP1 POP JUMPDEST PUSH2 0x2263 DUP6 DUP3 PUSH2 0x1F81 JUMP JUMPDEST DUP7 SSTORE POP PUSH2 0x22D6 JUMP JUMPDEST PUSH1 0x1F NOT DUP5 AND PUSH2 0x2279 DUP8 PUSH2 0x1DF1 JUMP JUMPDEST SWAP7 POP PUSH2 0x2284 DUP7 PUSH2 0x1DF1 JUMP JUMPDEST PUSH1 0x0 JUMPDEST DUP3 DUP2 LT ISZERO PUSH2 0x22AC JUMPI DUP5 DUP10 ADD SLOAD DUP3 SSTORE PUSH1 0x1 DUP3 ADD SWAP2 POP PUSH1 0x1 DUP6 ADD SWAP5 POP PUSH1 0x20 DUP2 ADD SWAP1 POP PUSH2 0x2287 JUMP JUMPDEST DUP7 DUP4 LT ISZERO PUSH2 0x22C9 JUMPI DUP5 DUP10 ADD SLOAD PUSH2 0x22C5 PUSH1 0x1F DUP10 AND DUP3 PUSH2 0x1F63 JUMP JUMPDEST DUP4 SSTORE POP JUMPDEST PUSH1 0x1 PUSH1 0x2 DUP9 MUL ADD DUP9 SSTORE POP POP POP JUMPDEST POP POP POP POP POP POP JUMPDEST JUMP JUMPDEST PUSH1 0x0 PUSH2 0x22EA DUP3 PUSH2 0x1406 JUMP JUMPDEST SWAP2 POP PUSH32 0xFFFFFFFFFFFFFFFFFFFFFFFFFFFFFFFFFFFFFFFFFFFFFFFFFFFFFFFFFFFFFFFF DUP3 SUB PUSH2 0x231C JUMPI PUSH2 0x231B PUSH2 0x214A JUMP JUMPDEST JUMPDEST PUSH1 0x1 DUP3 ADD SWAP1 POP SWAP2 SWAP1 POP JUMP JUMPDEST PUSH1 0x0 PUSH2 0x2333 DUP4 DUP6 PUSH2 0x14CF JUMP JUMPDEST SWAP4 POP PUSH2 0x2340 DUP4 DUP6 DUP5 PUSH2 0x166C JUMP JUMPDEST PUSH2 0x2349 DUP4 PUSH2 0x150A JUMP JUMPDEST DUP5 ADD SWAP1 POP SWAP4 SWAP3 POP POP POP JUMP JUMPDEST PUSH1 0x0 PUSH1 0x80 DUP3 ADD SWAP1 POP PUSH2 0x2369 PUSH1 0x0 DUP4 ADD DUP9 PUSH2 0x14B5 JUMP JUMPDEST PUSH2 0x2376 PUSH1 0x20 DUP4 ADD DUP8 PUSH2 0x149C JUMP JUMPDEST PUSH2 0x2383 PUSH1 0x40 DUP4 ADD DUP7 PUSH2 0x149C JUMP JUMPDEST DUP2 DUP2 SUB PUSH1 0x60 DUP4 ADD MSTORE PUSH2 0x2396 DUP2 DUP5 DUP7 PUSH2 0x2327 JUMP JUMPDEST SWAP1 POP SWAP7 SWAP6 POP POP POP POP POP POP JUMP JUMPDEST PUSH32 0x4172726179206C656E677468206D69736D617463680000000000000000000000 PUSH1 0x0 DUP3 ADD MSTORE POP JUMP JUMPDEST PUSH1 0x0 PUSH2 0x23D8 PUSH1 0x15 DUP4 PUSH2 0x14CF JUMP JUMPDEST SWAP2 POP PUSH2 0x23E3 DUP3 PUSH2 0x23A2 JUMP JUMPDEST PUSH1 0x20 DUP3 ADD SWAP1 POP SWAP2 SWAP1 POP JUMP JUMPDEST PUSH1 0x0 PUSH1 0x20 DUP3 ADD SWAP1 POP DUP2 DUP2 SUB PUSH1 0x0 DUP4 ADD MSTORE PUSH2 0x2407 DUP2 PUSH2 0x23CB JUMP JUMPDEST SWAP1 POP SWAP2 SWAP1 POP JUMP JUMPDEST PUSH1 0x0 DUP1 REVERT JUMPDEST PUSH1 0x0 DUP1 REVERT JUMPDEST PUSH1 0x0 DUP1 REVERT JUMPDEST PUSH1 0x0 DUP1 DUP4 CALLDATALOAD PUSH1 0x1 PUSH1 0x20 SUB DUP5 CALLDATASIZE SUB SUB DUP2 SLT PUSH2 0x243A JUMPI PUSH2 0x2439 PUSH2 0x240E JUMP JUMPDEST JUMPDEST DUP1 DUP5 ADD SWAP3 POP DUP3 CALLDATALOAD SWAP2 POP PUSH8 0xFFFFFFFFFFFFFFFF DUP3 GT ISZERO PUSH2 0x245C JUMPI PUSH2 0x245B PUSH2 0x2413 JUMP JUMPDEST JUMPDEST PUSH1 0x20 DUP4 ADD SWAP3 POP PUSH1 0x1 DUP3 MUL CALLDATASIZE SUB DUP4 SGT ISZERO PUSH2 0x2478 JUMPI PUSH2 0x2477 PUSH2 0x2418 JUMP JUMPDEST JUMPDEST POP SWAP3 POP SWAP3 SWAP1 POP JUMP INVALID LOG2 PUSH5 0x6970667358 0x22 SLT KECCAK256 0xBF EXP LOG3 0xE1 0x2A 0x2A SWAP8 0xBB PUSH19 0x89332C94C6302C4F763B0293FD30090F52E9DA PUSH10 0xD255E664736F6C634300 ADDMOD SGT STOP CALLER "},"methodIdentifiers":{"MAX_HISTORY()":"13545a02","getHistorical(string,uint256)":"07cca318","getHistoryLength(string)":"e662efeb","getLatest(string)":"d24678df","getTrackedAssetsCount()":"b70f4615","historicalData(string,uint256)":"850aa85c","isTracked(string)":"23e7f06c","latestData(string)":"9250cfaf","oracle()":"7dc0d1d0","publishBatch(string[],int256[],uint256[],string)":"f3acf8aa","publishSentiment(string,int256,uint256,string)":"b6159d44","setOracle(address)":"7adbf973","trackedAssets(uint256)":"f715d99c"}}}}}