{
  "_format": "hh3-artifact-1",
  "contractName": "SentimentOracle",
  "sourceName": "contracts/SentimentOracle.sol",
  "abi": [
    {
      "inputs": [],
      "stateMutability": "nonpayable",
      "type": "constructor"
    },
    {
      "anonymous": false,
      "inputs": [
        {
          "indexed": true,
          "internalType": "address",
          "name": "oldOracle",
          "type": "address"
        },
        {
          "indexed": true,
          "internalType": "address",
          "name": "newOracle",
          "type": "address"
        }
      ],
      "name": "OracleUpdated",
      "type": "event"
    },
    {
      "anonymous": false,
      "inputs": [
        {
          "indexed": true,
          "internalType": "string",
          "name": "asset",
          "type": "string"
        },
        {
          "indexed": false,
          "internalType": "int256",
          "name": "sentiment",
          "type": "int256"
        },
        {
          "indexed": false,
          "internalType": "uint256",
          "name": "price",
          "type": "uint256"
        },
        {
          "indexed": false,
          "internalType": "uint256",
          "name": "timestamp",
          "type": "uint256"
        },
        {
          "indexed": false,
          "internalType": "string",
          "name": "source",
          "type": "string"
        }
      ],
      "name": "SentimentPublished",
      "type": "event"
    },
    {
      "inputs": [],
      "name": "MAX_HISTORY",
      "outputs": [
        {
          "internalType": "uint256",
          "name": "",
          "type": "uint256"
        }
      ],
      "stateMutability": "view",
      "type": "function"
    },
    {
      "inputs": [
        {
          "internalType": "string",
          "name": "asset",
          "type": "string"
        },
        {
          "internalType": "uint256",
          "name": "index",
          "type": "uint256"
        }
      ],
      "name": "getHistorical",
      "outputs": [
        {
          "internalType": "uint256",
          "name": "timestamp",
          "type": "uint256"
        },
        {
          "internalType": "int256",
          "name": "sentiment",
          "type": "int256"
        },
        {
          "internalType": "uint256",
          "name": "price",
          "type": "uint256"
        },
        {
          "internalType": "string",
          "name": "source",
          "type": "string"
        }
      ],
      "stateMutability": "view",
      "type": "function"
    },
    {
      "inputs": [
        {
          "internalType": "string",
          "name": "asset",
          "type": "string"
        }
      ],
      "name": "getHistoryLength",
      "outputs": [
        {
          "internalType": "uint256",
          "name": "",
          "type": "uint256"
        }
      ],
      "stateMutability": "view",
      "type": "function"
    },
    {
      "inputs": [
        {
          "internalType": "string",
          "name": "asset",
          "type": "string"
        }
      ],
      "name": "getLatest",
      "outputs": [
        {
          "internalType": "uint256",
          "name": "timestamp",
          "type": "uint256"
        },
        {
          "internalType": "int256",
          "name": "sentiment",
          "type": "int256"
        },
        {
          "internalType": "uint256",
          "name": "price",
          "type": "uint256"
        },
        {
          "internalType": "string",
          "name": "source",
          "type": "string"
        }
      ],
      "stateMutability": "view",
      "type": "function"
    },
    {
      "inputs": [],
      "name": "getTrackedAssetsCount",
      "outputs": [
        {
          "internalType": "uint256",
          "name": "",
          "type": "uint256"
        }
      ],
      "stateMutability": "view",
      "type": "function"
    },
    {
      "inputs": [
        {
          "internalType": "string",
          "name": "",
          "type": "string"
        },
        {
          "internalType": "uint256",
          "name": "",
          "type": "uint256"
        }
      ],
      "name": "historicalData",
      "outputs": [
        {
          "internalType": "uint256",
          "name": "timestamp",
          "type": "uint256"
        },
        {
          "internalType": "int256",
          "name": "sentiment",
          "type": "int256"
        },
        {
          "internalType": "uint256",
          "name": "price",
          "type": "uint256"
        },
        {
          "internalType": "string",
          "name": "source",
          "type": "string"
        }
      ],
      "stateMutability": "view",
      "type": "function"
    },
    {
      "inputs": [
        {
          "internalType": "string",
          "name": "",
          "type": "string"
        }
      ],
      "name": "isTracked",
      "outputs": [
        {
          "internalType": "bool",
          "name": "",
          "type": "bool"
        }
      ],
      "stateMutability": "view",
      "type": "function"
    },
    {
      "inputs": [
        {
          "internalType": "string",
          "name": "",
          "type": "string"
        }
      ],
      "name": "latestData",
      "outputs": [
        {
          "internalType": "uint256",
          "name": "timestamp",
          "type": "uint256"
        },
        {
          "internalType": "int256",
          "name": "sentiment",
          "type": "int256"
        },
        {
          "internalType": "uint256",
          "name": "price",
          "type": "uint256"
        },
        {
          "internalType": "string",
          "name": "source",
          "type": "string"
        }
      ],
      "stateMutability": "view",
      "type": "function"
    },
    {
      "inputs": [],
      "name": "oracle",
      "outputs": [
        {
          "internalType": "address",
          "name": "",
          "type": "address"
        }
      ],
      "stateMutability": "view",
      "type": "function"
    },
    {
      "inputs": [
        {
          "internalType": "string[]",
          "name": "assets",
          "type": "string[]"
        },
        {
          "internalType": "int256[]",
          "name": "sentiments",
          "type": "int256[]"
        },
        {
          "internalType": "uint256[]",
          "name": "prices",
          "type": "uint256[]"
        },
        {
          "internalType": "string",
          "name": "source",
          "type": "string"
        }
      ],
      "name": "publishBatch",
      "outputs": [],
      "stateMutability": "nonpayable",
      "type": "function"
    },
    {
      "inputs": [
        {
          "internalType": "string",
          "name": "asset",
          "type": "string"
        },
        {
          "internalType": "int256",
          "name": "sentiment",
          "type": "int256"
        },
        {
          "internalType": "uint256",
          "name": "price",
          "type": "uint256"
        },
        {
          "internalType": "string",
          "name": "source",
          "type": "string"
        }
      ],
      "name": "publishSentiment",
      "outputs": [],
      "stateMutability": "nonpayable",
      "type": "function"
    },
    {
      "inputs": [
        {
          "internalType": "address",
          "name": "newOracle",
          "type": "address"
        }
      ],
      "name": "setOracle",
      "outputs": [],
      "stateMutability": "nonpayable",
      "type": "function"
    },
    {
      "inputs": [
        {
          "internalType": "uint256",
          "name": "",
          "type": "uint256"
        }
      ],
      "name": "trackedAssets",
      "outputs": [
        {
          "internalType": "string",
          "name": "",
          "type": "string"
        }
      ],
      "stateMutability": "view",
      "type": "function"
    }
  ],
  "bytecode": "0x608060405234801561001057600080fd5b50336000806101000a81548173ffffffffffffffffffffffffffffffffffffffff021916908373ffffffffffffffffffffffffffffffffffffffff1602179055506124b6806100606000396000f3fe608060405234801561001057600080fd5b50600436106100cf5760003560e01c80639250cfaf1161008c578063d24678df11610066578063d24678df1461022f578063e662efeb14610262578063f3acf8aa14610292578063f715d99c146102ae576100cf565b80639250cfaf146101c2578063b6159d44146101f5578063b70f461514610211576100cf565b806307cca318146100d457806313545a021461010757806323e7f06c146101255780637adbf973146101555780637dc0d1d014610171578063850aa85c1461018f575b600080fd5b6100ee60048036038101906100e9919061143c565b6102de565b6040516100fe9493929190611554565b60405180910390f35b61010f61046f565b60405161011c91906115a0565b60405180910390f35b61013f600480360381019061013a91906116eb565b610474565b60405161014c919061174f565b60405180910390f35b61016f600480360381019061016a91906117c8565b6104aa565b005b610179610664565b6040516101869190611804565b60405180910390f35b6101a960048036038101906101a4919061181f565b610688565b6040516101b99493929190611554565b60405180910390f35b6101dc60048036038101906101d791906116eb565b610773565b6040516101ec9493929190611554565b60405180910390f35b61020f600480360381019061020a91906118a7565b610841565b005b610219610cbe565b60405161022691906115a0565b60405180910390f35b6102496004803603810190610244919061194e565b610ccb565b6040516102599493929190611554565b60405180910390f35b61027c6004803603810190610277919061194e565b610dd7565b60405161028991906115a0565b60405180910390f35b6102ac60048036038101906102a79190611a9d565b610e05565b005b6102c860048036038101906102c39190611b86565b6112e1565b6040516102d59190611bb3565b60405180910390f35b60008060006060600287876040516102f7929190611c05565b908152602001604051809103902080549050851061034a576040517f08c379a000000000000000000000000000000000000000000000000000000000815260040161034190611c6a565b60405180910390fd5b60006002888860405161035e929190611c05565b9081526020016040518091039020868154811061037e5761037d611c8a565b5b90600052602060002090600402016040518060800160405290816000820154815260200160018201548152602001600282015481526020016003820180546103c590611ce8565b80601f01602080910402602001604051908101604052809291908181526020018280546103f190611ce8565b801561043e5780601f106104135761010080835404028352916020019161043e565b820191906000526020600020905b81548152906001019060200180831161042157829003601f168201915b5050505050815250509050806000015181602001518260400151836060015194509450945094505093509350935093565b601e81565b6004818051602081018201805184825260208301602085012081835280955050505050506000915054906101000a900460ff1681565b60008054906101000a900473ffffffffffffffffffffffffffffffffffffffff1673ffffffffffffffffffffffffffffffffffffffff163373ffffffffffffffffffffffffffffffffffffffff1614610538576040517f08c379a000000000000000000000000000000000000000000000000000000000815260040161052f90611d65565b60405180910390fd5b600073ffffffffffffffffffffffffffffffffffffffff168173ffffffffffffffffffffffffffffffffffffffff16036105a7576040517f08c379a000000000000000000000000000000000000000000000000000000000815260040161059e90611dd1565b60405180910390fd5b8073ffffffffffffffffffffffffffffffffffffffff1660008054906101000a900473ffffffffffffffffffffffffffffffffffffffff1673ffffffffffffffffffffffffffffffffffffffff167f078c3b417dadf69374a59793b829c52001247130433427049317bde56607b1b760405160405180910390a3806000806101000a81548173ffffffffffffffffffffffffffffffffffffffff021916908373ffffffffffffffffffffffffffffffffffffffff16021790555050565b60008054906101000a900473ffffffffffffffffffffffffffffffffffffffff1681565b60028280516020810182018051848252602083016020850120818352809550505050505081815481106106ba57600080fd5b9060005260206000209060040201600091509150508060000154908060010154908060020154908060030180546106f090611ce8565b80601f016020809104026020016040519081016040528092919081815260200182805461071c90611ce8565b80156107695780601f1061073e57610100808354040283529160200191610769565b820191906000526020600020905b81548152906001019060200180831161074c57829003601f168201915b5050505050905084565b6001818051602081018201805184825260208301602085012081835280955050505050506000915090508060000154908060010154908060020154908060030180546107be90611ce8565b80601f01602080910402602001604051908101604052809291908181526020018280546107ea90611ce8565b80156108375780601f1061080c57610100808354040283529160200191610837565b820191906000526020600020905b81548152906001019060200180831161081a57829003601f168201915b5050505050905084565b60008054906101000a900473ffffffffffffffffffffffffffffffffffffffff1673ffffffffffffffffffffffffffffffffffffffff163373ffffffffffffffffffffffffffffffffffffffff16146108cf576040517f08c379a00000000000000000000000000000000000000000000000000000000081526004016108c690611d65565b60405180910390fd5b6000604051806080016040528042815260200186815260200185815260200184848080601f016020809104026020016040519081016040528093929190818152602001838380828437600081840152601f19601f820116905080830192505050505050508152509050806001888860405161094b929190611c05565b9081526020016040518091039020600082015181600001556020820151816001015560408201518160020155606082015181600301908161098c9190611f9d565b50905050600487876040516109a2929190611c05565b908152602001604051809103902060009054906101000a900460ff16610a3a5760038787909180600181540180825580915050600190039060005260206000200160009091929091929091929091925091826109ff92919061207a565b50600160048888604051610a14929190611c05565b908152602001604051809103902060006101000a81548160ff0219169083151502179055505b601e60028888604051610a4e929190611c05565b90815260200160405180910390208054905010610bdd5760005b6001601e610a769190612179565b811015610b525760028888604051610a8f929190611c05565b9081526020016040518091039020600182610aaa91906121ad565b81548110610abb57610aba611c8a565b5b906000526020600020906004020160028989604051610adb929190611c05565b90815260200160405180910390208281548110610afb57610afa611c8a565b5b906000526020600020906004020160008201548160000155600182015481600101556002820154816002015560038201816003019081610b3b91906121f7565b509050508080610b4a906122df565b915050610a68565b508060028888604051610b66929190611c05565b90815260200160405180910390206001601e610b829190612179565b81548110610b9357610b92611c8a565b5b90600052602060002090600402016000820151816000015560208201518160010155604082015181600201556060820151816003019081610bd49190611f9d565b50905050610c5e565b60028787604051610bef929190611c05565b90815260200160405180910390208190806001815401808255809150506001900390600052602060002090600402016000909190919091506000820151816000015560208201518160010155604082015181600201556060820151816003019081610c5a9190611f9d565b5050505b8686604051610c6e929190611c05565b60405180910390207f37ec35502701028facb9bdc90275238af3fb7f0469ee185058ea953d93c978778686428787604051610cad959493929190612354565b60405180910390a250505050505050565b6000600380549050905090565b60008060006060600060018787604051610ce6929190611c05565b9081526020016040518091039020604051806080016040529081600082015481526020016001820154815260200160028201548152602001600382018054610d2d90611ce8565b80601f0160208091040260200160405190810160405280929190818152602001828054610d5990611ce8565b8015610da65780601f10610d7b57610100808354040283529160200191610da6565b820191906000526020600020905b815481529060010190602001808311610d8957829003601f168201915b5050505050815250509050806000015181602001518260400151836060015194509450945094505092959194509250565b600060028383604051610deb929190611c05565b908152602001604051809103902080549050905092915050565b60008054906101000a900473ffffffffffffffffffffffffffffffffffffffff1673ffffffffffffffffffffffffffffffffffffffff163373ffffffffffffffffffffffffffffffffffffffff1614610e93576040517f08c379a0000000000000000000000000000000000000000000000000000000008152600401610e8a90611d65565b60405180910390fd5b8585905088889050148015610ead57508383905086869050145b610eec576040517f08c379a0000000000000000000000000000000000000000000000000000000008152600401610ee3906123ee565b60405180910390fd5b60005b888890508110156112d65760006040518060800160405280428152602001898985818110610f2057610f1f611c8a565b5b905060200201358152602001878785818110610f3f57610f3e611c8a565b5b90506020020135815260200185858080601f016020809104026020016040519081016040528093929190818152602001838380828437600081840152601f19601f8201169050808301925050505050505081525090508060018b8b85818110610fab57610faa611c8a565b5b9050602002810190610fbd919061241d565b604051610fcb929190611c05565b9081526020016040518091039020600082015181600001556020820151816001015560408201518160020155606082015181600301908161100c9190611f9d565b5090505060048a8a8481811061102557611024611c8a565b5b9050602002810190611037919061241d565b604051611045929190611c05565b908152602001604051809103902060009054906101000a900460ff166111235760038a8a8481811061107a57611079611c8a565b5b905060200281019061108c919061241d565b909180600181540180825580915050600190039060005260206000200160009091929091929091929091925091826110c592919061207a565b50600160048b8b858181106110dd576110dc611c8a565b5b90506020028101906110ef919061241d565b6040516110fd929190611c05565b908152602001604051809103902060006101000a81548160ff0219169083151502179055505b601e60028b8b8581811061113a57611139611c8a565b5b905060200281019061114c919061241d565b60405161115a929190611c05565b90815260200160405180910390208054905010156112165760028a8a8481811061118757611186611c8a565b5b9050602002810190611199919061241d565b6040516111a7929190611c05565b908152602001604051809103902081908060018154018082558091505060019003906000526020600020906004020160009091909190915060008201518160000155602082015181600101556040820151816002015560608201518160030190816112129190611f9d565b5050505b89898381811061122957611228611c8a565b5b905060200281019061123b919061241d565b604051611249929190611c05565b60405180910390207f37ec35502701028facb9bdc90275238af3fb7f0469ee185058ea953d93c9787789898581811061128557611284611c8a565b5b9050602002013588888681811061129f5761129e611c8a565b5b905060200201354288886040516112ba959493929190612354565b60405180910390a25080806112ce906122df565b915050610eef565b505050505050505050565b600381815481106112f157600080fd5b90600052602060002001600091509050805461130c90611ce8565b80601f016020809104026020016040519081016040528092919081815260200182805461133890611ce8565b80156113855780601f1061135a57610100808354040283529160200191611385565b820191906000526020600020905b81548152906001019060200180831161136857829003601f168201915b505050505081565b6000604051905090565b600080fd5b600080fd5b600080fd5b600080fd5b600080fd5b60008083601f8401126113c6576113c56113a1565b5b8235905067ffffffffffffffff8111156113e3576113e26113a6565b5b6020830191508360018202830111156113ff576113fe6113ab565b5b9250929050565b6000819050919050565b61141981611406565b811461142457600080fd5b50565b60008135905061143681611410565b92915050565b60008060006040848603121561145557611454611397565b5b600084013567ffffffffffffffff8111156114735761147261139c565b5b61147f868287016113b0565b9350935050602061149286828701611427565b9150509250925092565b6114a581611406565b82525050565b6000819050919050565b6114be816114ab565b82525050565b600081519050919050565b600082825260208201905092915050565b60005b838110156114fe5780820151818401526020810190506114e3565b60008484015250505050565b6000601f19601f8301169050919050565b6000611526826114c4565b61153081856114cf565b93506115408185602086016114e0565b6115498161150a565b840191505092915050565b6000608082019050611569600083018761149c565b61157660208301866114b5565b611583604083018561149c565b8181036060830152611595818461151b565b905095945050505050565b60006020820190506115b5600083018461149c565b92915050565b600080fd5b7f4e487b7100000000000000000000000000000000000000000000000000000000600052604160045260246000fd5b6115f88261150a565b810181811067ffffffffffffffff82111715611617576116166115c0565b5b80604052505050565b600061162a61138d565b905061163682826115ef565b919050565b600067ffffffffffffffff821115611656576116556115c0565b5b61165f8261150a565b9050602081019050919050565b82818337600083830152505050565b600061168e6116898461163b565b611620565b9050828152602081018484840111156116aa576116a96115bb565b5b6116b584828561166c565b509392505050565b600082601f8301126116d2576116d16113a1565b5b81356116e284826020860161167b565b91505092915050565b60006020828403121561170157611700611397565b5b600082013567ffffffffffffffff81111561171f5761171e61139c565b5b61172b848285016116bd565b91505092915050565b60008115159050919050565b61174981611734565b82525050565b60006020820190506117646000830184611740565b92915050565b600073ffffffffffffffffffffffffffffffffffffffff82169050919050565b60006117958261176a565b9050919050565b6117a58161178a565b81146117b057600080fd5b50565b6000813590506117c28161179c565b92915050565b6000602082840312156117de576117dd611397565b5b60006117ec848285016117b3565b91505092915050565b6117fe8161178a565b82525050565b600060208201905061181960008301846117f5565b92915050565b6000806040838503121561183657611835611397565b5b600083013567ffffffffffffffff8111156118545761185361139c565b5b611860858286016116bd565b925050602061187185828601611427565b9150509250929050565b611884816114ab565b811461188f57600080fd5b50565b6000813590506118a18161187b565b92915050565b600080600080600080608087890312156118c4576118c3611397565b5b600087013567ffffffffffffffff8111156118e2576118e161139c565b5b6118ee89828a016113b0565b9650965050602061190189828a01611892565b945050604061191289828a01611427565b935050606087013567ffffffffffffffff8111156119335761193261139c565b5b61193f89828a016113b0565b92509250509295509295509295565b6000806020838503121561196557611964611397565b5b600083013567ffffffffffffffff8111156119835761198261139c565b5b61198f858286016113b0565b92509250509250929050565b60008083601f8401126119b1576119b06113a1565b5b8235905067ffffffffffffffff8111156119ce576119cd6113a6565b5b6020830191508360208202830111156119ea576119e96113ab565b5b9250929050565b60008083601f840112611a0757611a066113a1565b5b8235905067ffffffffffffffff811115611a2457611a236113a6565b5b602083019150836020820283011115611a4057611a3f6113ab565b5b9250929050565b60008083601f840112611a5d57611a5c6113a1565b5b8235905067ffffffffffffffff811115611a7a57611a796113a6565b5b602083019150836020820283011115611a9657611a956113ab565b5b9250929050565b6000806000806000806000806080898b031215611abd57611abc611397565b5b600089013567ffffffffffffffff811115611adb57611ada61139c565b5b611ae78b828c0161199b565b9850985050602089013567ffffffffffffffff811115611b0a57611b0961139c565b5b611b168b828c016119f1565b9650965050604089013567ffffffffffffffff811115611b3957611b3861139c565b5b611b458b828c01611a47565b9450945050606089013567ffffffffffffffff811115611b6857611b6761139c565b5b611b748b828c016113b0565b92509250509295985092959890939650565b600060208284031215611b9c57611b9b611397565b5b6000611baa84828501611427565b91505092915050565b60006020820190508181036000830152611bcd818461151b565b905092915050565b600081905092915050565b6000611bec8385611bd5565b9350611bf983858461166c565b82840190509392505050565b6000611c12828486611be0565b91508190509392505050565b7f496e646578206f7574206f6620626f756e647300000000000000000000000000600082015250565b6000611c546013836114cf565b9150611c5f82611c1e565b602082019050919050565b60006020820190508181036000830152611c8381611c47565b9050919050565b7f4e487b7100000000000000000000000000000000000000000000000000000000600052603260045260246000fd5b7f4e487b7100000000000000000000000000000000000000000000000000000000600052602260045260246000fd5b60006002820490506001821680611d0057607f821691505b602082108103611d1357611d12611cb9565b5b50919050565b7f4f6e6c79206f7261636c652063616e207075626c697368000000000000000000600082015250565b6000611d4f6017836114cf565b9150611d5a82611d19565b602082019050919050565b60006020820190508181036000830152611d7e81611d42565b9050919050565b7f496e76616c696420616464726573730000000000000000000000000000000000600082015250565b6000611dbb600f836114cf565b9150611dc682611d85565b602082019050919050565b60006020820190508181036000830152611dea81611dae565b9050919050565b60008190508160005260206000209050919050565b60006020601f8301049050919050565b600082821b905092915050565b600060088302611e537fffffffffffffffffffffffffffffffffffffffffffffffffffffffffffffffff82611e16565b611e5d8683611e16565b95508019841693508086168417925050509392505050565b6000819050919050565b6000611e9a611e95611e9084611406565b611e75565b611406565b9050919050565b6000819050919050565b611eb483611e7f565b611ec8611ec082611ea1565b848454611e23565b825550505050565b600090565b611edd611ed0565b611ee8818484611eab565b505050565b5b81811015611f0c57611f01600082611ed5565b600181019050611eee565b5050565b601f821115611f5157611f2281611df1565b611f2b84611e06565b81016020851015611f3a578190505b611f4e611f4685611e06565b830182611eed565b50505b505050565b600082821c905092915050565b6000611f7460001984600802611f56565b1980831691505092915050565b6000611f8d8383611f63565b9150826002028217905092915050565b611fa6826114c4565b67ffffffffffffffff811115611fbf57611fbe6115c0565b5b611fc98254611ce8565b611fd4828285611f10565b600060209050601f8311600181146120075760008415611ff5578287015190505b611fff8582611f81565b865550612067565b601f19841661201586611df1565b60005b8281101561203d57848901518255600182019150602085019450602081019050612018565b8683101561205a5784890151612056601f891682611f63565b8355505b6001600288020188555050505b505050505050565b600082905092915050565b612084838361206f565b67ffffffffffffffff81111561209d5761209c6115c0565b5b6120a78254611ce8565b6120b2828285611f10565b6000601f8311600181146120e157600084156120cf578287013590505b6120d98582611f81565b865550612141565b601f1984166120ef86611df1565b60005b82811015612117578489013582556001820191506020850194506020810190506120f2565b868310156121345784890135612130601f891682611f63565b8355505b6001600288020188555050505b50505050505050565b7f4e487b7100000000000000000000000000000000000000000000000000000000600052601160045260246000fd5b600061218482611406565b915061218f83611406565b92508282039050818111156121a7576121a661214a565b5b92915050565b60006121b882611406565b91506121c383611406565b92508282019050808211156121db576121da61214a565b5b92915050565b6000815490506121f081611ce8565b9050919050565b8181036122055750506122dd565b61220e826121e1565b67ffffffffffffffff811115612227576122266115c0565b5b6122318254611ce8565b61223c828285611f10565b6000601f83116001811461226b5760008415612259578287015490505b6122638582611f81565b8655506122d6565b601f19841661227987611df1565b965061228486611df1565b60005b828110156122ac57848901548255600182019150600185019450602081019050612287565b868310156122c957848901546122c5601f891682611f63565b8355505b6001600288020188555050505b5050505050505b565b60006122ea82611406565b91507fffffffffffffffffffffffffffffffffffffffffffffffffffffffffffffffff820361231c5761231b61214a565b5b600182019050919050565b600061233383856114cf565b935061234083858461166c565b6123498361150a565b840190509392505050565b600060808201905061236960008301886114b5565b612376602083018761149c565b612383604083018661149c565b8181036060830152612396818486612327565b90509695505050505050565b7f4172726179206c656e677468206d69736d617463680000000000000000000000600082015250565b60006123d86015836114cf565b91506123e3826123a2565b602082019050919050565b60006020820190508181036000830152612407816123cb565b9050919050565b600080fd5b600080fd5b600080fd5b6000808335600160200384360303811261243a5761243961240e565b5b80840192508235915067ffffffffffffffff82111561245c5761245b612413565b5b60208301925060018202360383131561247857612477612418565b5b50925092905056fea2646970667358221220bf0aa3e12a2a97bb7289332c94c6302c4f763b0293fd30090f52e9da69d255e664736f6c63430008130033",
  "linkReferences": {},
  "deployedLinkReferences": {},
  "immutableReferences": {},
  "inputSourceName": "project/contracts/SentimentOracle.sol",
  "buildInfoId": "solc-0_8_19-74b9afc5405244b2aff68c0c6c9940df2d49e0af"
}