{
  "_format": "hh3-artifact-1",
  "contractName": "AgentMemoryRegistry",
  "sourceName": "contracts/AgentMemoryRegistry.sol",
  "abi": [
    {
      "inputs": [],
      "name": "AddressAlreadyHasAgent",
      "type": "error"
    },
    {
      "inputs": [],
      "name": "AgentAlreadyRegistered",
      "type": "error"
    },
    {
      "inputs": [],
      "name": "AgentInactive",
      "type": "error"
    },
    {
      "inputs": [],
      "name": "AgentNotRegistered",
      "type": "error"
    },
    {
      "inputs": [],
      "name": "EmptyAgentId",
      "type": "error"
    },
    {
      "inputs": [],
      "name": "NotAgentOwner",
      "type": "error"
    },
    {
      "anonymous": false,
      "inputs": [
        {
          "indexed": true,
          "internalType": "string",
          "name": "agentId",
          "type": "string"
        },
        {
          "indexed": true,
          "internalType": "address",
          "name": "owner",
          "type": "address"
        },
        {
          "indexed": false,
          "internalType": "uint256",
          "name": "timestamp",
          "type": "uint256"
        }
      ],
      "name": "AgentRegistered",
      "type": "event"
    },
    {
      "anonymous": false,
      "inputs": [
        {
          "indexed": true,
          "internalType": "string",
          "name": "agentId",
          "type": "string"
        },
        {
          "indexed": true,
          "internalType": "address",
          "name": "oldOwner",
          "type": "address"
        },
        {
          "indexed": true,
          "internalType": "address",
          "name": "newOwner",
          "type": "address"
        }
      ],
      "name": "AgentTransferred",
      "type": "event"
    },
    {
      "anonymous": false,
      "inputs": [
        {
          "indexed": true,
          "internalType": "string",
          "name": "agentId",
          "type": "string"
        },
        {
          "indexed": true,
          "internalType": "bytes32",
          "name": "merkleRoot",
          "type": "bytes32"
        },
        {
          "indexed": true,
          "internalType": "uint256",
          "name": "checkpointIndex",
          "type": "uint256"
        },
        {
          "indexed": false,
          "internalType": "uint256",
          "name": "timestamp",
          "type": "uint256"
        },
        {
          "indexed": false,
          "internalType": "string",
          "name": "metadata",
          "type": "string"
        }
      ],
      "name": "CheckpointPublished",
      "type": "event"
    },
    {
      "inputs": [
        {
          "internalType": "address",
          "name": "",
          "type": "address"
        }
      ],
      "name": "addressToAgent",
      "outputs": [
        {
          "internalType": "string",
          "name": "",
          "type": "string"
        }
      ],
      "stateMutability": "view",
      "type": "function"
    },
    {
      "inputs": [
        {
          "internalType": "string",
          "name": "",
          "type": "string"
        }
      ],
      "name": "agents",
      "outputs": [
        {
          "internalType": "address",
          "name": "owner",
          "type": "address"
        },
        {
          "internalType": "string",
          "name": "agentId",
          "type": "string"
        },
        {
          "internalType": "uint256",
          "name": "registeredAt",
          "type": "uint256"
        },
        {
          "internalType": "bool",
          "name": "active",
          "type": "bool"
        }
      ],
      "stateMutability": "view",
      "type": "function"
    },
    {
      "inputs": [
        {
          "internalType": "string",
          "name": "",
          "type": "string"
        },
        {
          "internalType": "uint256",
          "name": "",
          "type": "uint256"
        }
      ],
      "name": "checkpoints",
      "outputs": [
        {
          "internalType": "bytes32",
          "name": "merkleRoot",
          "type": "bytes32"
        },
        {
          "internalType": "uint256",
          "name": "timestamp",
          "type": "uint256"
        },
        {
          "internalType": "uint256",
          "name": "blockNumber",
          "type": "uint256"
        },
        {
          "internalType": "string",
          "name": "metadata",
          "type": "string"
        }
      ],
      "stateMutability": "view",
      "type": "function"
    },
    {
      "inputs": [
        {
          "internalType": "string",
          "name": "agentId",
          "type": "string"
        }
      ],
      "name": "deactivateAgent",
      "outputs": [],
      "stateMutability": "nonpayable",
      "type": "function"
    },
    {
      "inputs": [
        {
          "internalType": "string",
          "name": "agentId",
          "type": "string"
        },
        {
          "internalType": "uint256",
          "name": "index",
          "type": "uint256"
        }
      ],
      "name": "getCheckpoint",
      "outputs": [
        {
          "components": [
            {
              "internalType": "bytes32",
              "name": "merkleRoot",
              "type": "bytes32"
            },
            {
              "internalType": "uint256",
              "name": "timestamp",
              "type": "uint256"
            },
            {
              "internalType": "uint256",
              "name": "blockNumber",
              "type": "uint256"
            },
            {
              "internalType": "string",
              "name": "metadata",
              "type": "string"
            }
          ],
          "internalType": "struct AgentMemoryRegistry.Checkpoint",
          "name": "",
          "type": "tuple"
        }
      ],
      "stateMutability": "view",
      "type": "function"
    },
    {
      "inputs": [
        {
          "internalType": "string",
          "name": "agentId",
          "type": "string"
        }
      ],
      "name": "getCheckpointCount",
      "outputs": [
        {
          "internalType": "uint256",
          "name": "",
          "type": "uint256"
        }
      ],
      "stateMutability": "view",
      "type": "function"
    },
    {
      "inputs": [
        {
          "internalType": "string",
          "name": "agentId",
          "type": "string"
        },
        {
          "internalType": "uint256",
          "name": "start",
          "type": "uint256"
        },
        {
          "internalType": "uint256",
          "name": "count",
          "type": "uint256"
        }
      ],
      "name": "getCheckpointRange",
      "outputs": [
        {
          "components": [
            {
              "internalType": "bytes32",
              "name": "merkleRoot",
              "type": "bytes32"
            },
            {
              "internalType": "uint256",
              "name": "timestamp",
              "type": "uint256"
            },
            {
              "internalType": "uint256",
              "name": "blockNumber",
              "type": "uint256"
            },
            {
              "internalType": "string",
              "name": "metadata",
              "type": "string"
            }
          ],
          "internalType": "struct AgentMemoryRegistry.Checkpoint[]",
          "name": "",
          "type": "tuple[]"
        }
      ],
      "stateMutability": "view",
      "type": "function"
    },
    {
      "inputs": [
        {
          "internalType": "string",
          "name": "agentId",
          "type": "string"
        }
      ],
      "name": "getLatestCheckpoint",
      "outputs": [
        {
          "components": [
            {
              "internalType": "bytes32",
              "name": "merkleRoot",
              "type": "bytes32"
            },
            {
              "internalType": "uint256",
              "name": "timestamp",
              "type": "uint256"
            },
            {
              "internalType": "uint256",
              "name": "blockNumber",
              "type": "uint256"
            },
            {
              "internalType": "string",
              "name": "metadata",
              "type": "string"
            }
          ],
          "internalType": "struct AgentMemoryRegistry.Checkpoint",
          "name": "",
          "type": "tuple"
        }
      ],
      "stateMutability": "view",
      "type": "function"
    },
    {
      "inputs": [
        {
          "internalType": "string",
          "name": "agentId",
          "type": "string"
        },
        {
          "internalType": "bytes32",
          "name": "merkleRoot",
          "type": "bytes32"
        },
        {
          "internalType": "string",
          "name": "metadata",
          "type": "string"
        }
      ],
      "name": "publishCheckpoint",
      "outputs": [],
      "stateMutability": "nonpayable",
      "type": "function"
    },
    {
      "inputs": [
        {
          "internalType": "bytes32",
          "name": "merkleRoot",
          "type": "bytes32"
        },
        {
          "internalType": "string",
          "name": "metadata",
          "type": "string"
        }
      ],
      "name": "publishCheckpointSimple",
      "outputs": [],
      "stateMutability": "nonpayable",
      "type": "function"
    },
    {
      "inputs": [
        {
          "internalType": "string",
          "name": "agentId",
          "type": "string"
        }
      ],
      "name": "reactivateAgent",
      "outputs": [],
      "stateMutability": "nonpayable",
      "type": "function"
    },
    {
      "inputs": [
        {
          "internalType": "string",
          "name": "agentId",
          "type": "string"
        }
      ],
      "name": "registerAgent",
      "outputs": [],
      "stateMutability": "nonpayable",
      "type": "function"
    },
    {
      "inputs": [],
      "name": "totalAgents",
      "outputs": [
        {
          "internalType": "uint256",
          "name": "",
          "type": "uint256"
        }
      ],
      "stateMutability": "view",
      "type": "function"
    },
    {
      "inputs": [],
      "name": "totalCheckpoints",
      "outputs": [
        {
          "internalType": "uint256",
          "name": "",
          "type": "uint256"
        }
      ],
      "stateMutability": "view",
      "type": "function"
    },
    {
      "inputs": [
        {
          "internalType": "string",
          "name": "agentId",
          "type": "string"
        },
        {
          "internalType": "address",
          "name": "newOwner",
          "type": "address"
        }
      ],
      "name": "transferAgent",
      "outputs": [],
      "stateMutability": "nonpayable",
      "type": "function"
    },
    {
      "inputs": [
        {
          "internalType": "string",
          "name": "agentId",
          "type": "string"
        },
        {
          "internalType": "uint256",
          "name": "checkpointIndex",
          "type": "uint256"
        },
        {
          "internalType": "bytes32",
          "name": "leaf",
          "type": "bytes32"
        },
        {
          "internalType": "bytes32[]",
          "name": "proof",
          "type": "bytes32[]"
        }
      ],
      "name": "verifyProof",
      "outputs": [
        {
          "internalType": "bool",
          "name": "valid",
          "type": "bool"
        }
      ],
      "stateMutability": "view",
      "type": "function"
    }
  ],
  "bytecode": "0x608060405234801561001057600080fd5b50613004806100206000396000f3fe608060405234801561001057600080fd5b50600436106101005760003560e01c8063b7acd7a811610097578063c505371211610066578063c5053712146102cd578063cc6aae35146102eb578063cf6ee0cb1461031e578063f332687d1461035157610100565b8063b7acd7a814610235578063b8b643f414610251578063bda94c7d14610281578063c414fb451461029d57610100565b806353857c1c116100d357806353857c1c1461018957806365f78215146101a557806385ee7749146101d55780638c55d0561461020557610100565b806306b15c831461010557806318697b75146101355780632d2a95851461015157806350cadbaf1461016d575b600080fd5b61011f600480360381019061011a9190611d73565b61036f565b60405161012c9190611dd9565b60405180910390f35b61014f600480360381019061014a9190611d73565b61039d565b005b61016b60048036038101906101669190611d73565b610488565b005b61018760048036038101906101829190611e2a565b6107ed565b005b6101a3600480360381019061019e9190611ebf565b610a8b565b005b6101bf60048036038101906101ba9190611f7d565b610d77565b6040516101cc919061203a565b60405180910390f35b6101ef60048036038101906101ea9190612088565b610e17565b6040516101fc9190612289565b60405180910390f35b61021f600480360381019061021a9190611d73565b611079565b60405161022c919061230e565b60405180910390f35b61024f600480360381019061024a9190612330565b6112a9565b005b61026b60048036038101906102669190612390565b61160d565b604051610278919061230e565b60405180910390f35b61029b60048036038101906102969190611d73565b61182b565b005b6102b760048036038101906102b29190612446565b611917565b6040516102c49190612508565b60405180910390f35b6102d5611a80565b6040516102e29190611dd9565b60405180910390f35b61030560048036038101906103009190612653565b611a86565b60405161031594939291906126be565b60405180910390f35b6103386004803603810190610333919061270a565b611b71565b6040516103489493929190612762565b60405180910390f35b610359611c6c565b6040516103669190611dd9565b60405180910390f35b6000600183836040516103839291906127de565b908152602001604051809103902080549050905092915050565b81813373ffffffffffffffffffffffffffffffffffffffff16600083836040516103c89291906127de565b908152602001604051809103902060000160009054906101000a900473ffffffffffffffffffffffffffffffffffffffff1673ffffffffffffffffffffffffffffffffffffffff1614610447576040517f390772fc00000000000000000000000000000000000000000000000000000000815260040160405180910390fd5b600080858560405161045a9291906127de565b908152602001604051809103902060030160006101000a81548160ff02191690831515021790555050505050565b600082829050036104c5576040517f3f7f02e900000000000000000000000000000000000000000000000000000000815260040160405180910390fd5b600073ffffffffffffffffffffffffffffffffffffffff16600083836040516104ef9291906127de565b908152602001604051809103902060000160009054906101000a900473ffffffffffffffffffffffffffffffffffffffff1673ffffffffffffffffffffffffffffffffffffffff161461056e576040517fe098d3ee00000000000000000000000000000000000000000000000000000000815260040160405180910390fd5b6000600260003373ffffffffffffffffffffffffffffffffffffffff1673ffffffffffffffffffffffffffffffffffffffff16815260200190815260200160002080546105ba90612826565b905011156105f4576040517f6ca95e4200000000000000000000000000000000000000000000000000000000815260040160405180910390fd5b60405180608001604052803373ffffffffffffffffffffffffffffffffffffffff16815260200183838080601f016020809104026020016040519081016040528093929190818152602001838380828437600081840152601f19601f82011690508083019250505050505050815260200142815260200160011515815250600083836040516106849291906127de565b908152602001604051809103902060008201518160000160006101000a81548173ffffffffffffffffffffffffffffffffffffffff021916908373ffffffffffffffffffffffffffffffffffffffff16021790555060208201518160010190816106ee9190612a03565b506040820151816002015560608201518160030160006101000a81548160ff0219169083151502179055509050508181600260003373ffffffffffffffffffffffffffffffffffffffff1673ffffffffffffffffffffffffffffffffffffffff168152602001908152602001600020918261076a929190612ae0565b506003600081548092919061077e90612bdf565b91905055503373ffffffffffffffffffffffffffffffffffffffff1682826040516107aa9291906127de565b60405180910390207f01dca017992f42032d107edcde6c3b0fd73a026225cf9f4ed12a236e08d7be86426040516107e19190611dd9565b60405180910390a35050565b84843373ffffffffffffffffffffffffffffffffffffffff16600083836040516108189291906127de565b908152602001604051809103902060000160009054906101000a900473ffffffffffffffffffffffffffffffffffffffff1673ffffffffffffffffffffffffffffffffffffffff1614610897576040517f390772fc00000000000000000000000000000000000000000000000000000000815260040160405180910390fd5b8686600082826040516108ab9291906127de565b908152602001604051809103902060030160009054906101000a900460ff16610900576040517fba32abe100000000000000000000000000000000000000000000000000000000815260040160405180910390fd5b6000604051806080016040528089815260200142815260200143815260200188888080601f016020809104026020016040519081016040528093929190818152602001838380828437600081840152601f19601f820116905080830192505050505050508152509050600060018b8b60405161097d9291906127de565b908152602001604051809103902080549050905060018b8b6040516109a39291906127de565b90815260200160405180910390208290806001815401808255809150506001900390600052602060002090600402016000909190919091506000820151816000015560208201518160010155604082015181600201556060820151816003019081610a0e9190612a03565b50505060046000815480929190610a2490612bdf565b919050555080898c8c604051610a3b9291906127de565b60405180910390207f964f54439b04e3806acdd0c1238648972545b2c28335f8c99067cdca2c8b8ac9428c8c604051610a7693929190612c54565b60405180910390a45050505050505050505050565b6000600260003373ffffffffffffffffffffffffffffffffffffffff1673ffffffffffffffffffffffffffffffffffffffff1681526020019081526020016000208054610ad790612826565b80601f0160208091040260200160405190810160405280929190818152602001828054610b0390612826565b8015610b505780601f10610b2557610100808354040283529160200191610b50565b820191906000526020600020905b815481529060010190602001808311610b3357829003601f168201915b505050505090506000815103610b92576040517f83bcfb4700000000000000000000000000000000000000000000000000000000815260040160405180910390fd5b600081604051610ba29190612cb7565b908152602001604051809103902060030160009054906101000a900460ff16610bf7576040517fba32abe100000000000000000000000000000000000000000000000000000000815260040160405180910390fd5b6000604051806080016040528086815260200142815260200143815260200185858080601f016020809104026020016040519081016040528093929190818152602001838380828437600081840152601f19601f8201169050808301925050505050505081525090506000600183604051610c729190612cb7565b9081526020016040518091039020805490509050600183604051610c969190612cb7565b90815260200160405180910390208290806001815401808255809150506001900390600052602060002090600402016000909190919091506000820151816000015560208201518160010155604082015181600201556060820151816003019081610d019190612a03565b50505060046000815480929190610d1790612bdf565b9190505550808684604051610d2c9190612cb7565b60405180910390207f964f54439b04e3806acdd0c1238648972545b2c28335f8c99067cdca2c8b8ac9428989604051610d6793929190612c54565b60405180910390a4505050505050565b60026020528060005260406000206000915090508054610d9690612826565b80601f0160208091040260200160405190810160405280929190818152602001828054610dc290612826565b8015610e0f5780601f10610de457610100808354040283529160200191610e0f565b820191906000526020600020905b815481529060010190602001808311610df257829003601f168201915b505050505081565b6060600060018686604051610e2d9291906127de565b9081526020016040518091039020805490509050808410610ea557600067ffffffffffffffff811115610e6357610e62612528565b5b604051908082528060200260200182016040528015610e9c57816020015b610e89611c72565b815260200190600190039081610e815790505b50915050611071565b60008385610eb39190612cce565b905081811115610ec1578190505b60008582610ecf9190612d02565b67ffffffffffffffff811115610ee857610ee7612528565b5b604051908082528060200260200182016040528015610f2157816020015b610f0e611c72565b815260200190600190039081610f065790505b50905060008690505b828110156110695760018989604051610f449291906127de565b90815260200160405180910390208181548110610f6457610f63612d36565b5b9060005260206000209060040201604051806080016040529081600082015481526020016001820154815260200160028201548152602001600382018054610fab90612826565b80601f0160208091040260200160405190810160405280929190818152602001828054610fd790612826565b80156110245780601f10610ff957610100808354040283529160200191611024565b820191906000526020600020905b81548152906001019060200180831161100757829003601f168201915b50505050508152505082888361103a9190612d02565b8151811061104b5761104a612d36565b5b6020026020010181905250808061106190612bdf565b915050610f2a565b508093505050505b949350505050565b611081611c72565b8282600073ffffffffffffffffffffffffffffffffffffffff16600083836040516110ad9291906127de565b908152602001604051809103902060000160009054906101000a900473ffffffffffffffffffffffffffffffffffffffff1673ffffffffffffffffffffffffffffffffffffffff160361112c576040517f83bcfb4700000000000000000000000000000000000000000000000000000000815260040160405180910390fd5b6000600186866040516111409291906127de565b908152602001604051809103902080549050905060008111611197576040517f08c379a000000000000000000000000000000000000000000000000000000000815260040161118e90612db1565b60405180910390fd5b600186866040516111a99291906127de565b90815260200160405180910390206001826111c49190612d02565b815481106111d5576111d4612d36565b5b906000526020600020906004020160405180608001604052908160008201548152602001600182015481526020016002820154815260200160038201805461121c90612826565b80601f016020809104026020016040519081016040528092919081815260200182805461124890612826565b80156112955780601f1061126a57610100808354040283529160200191611295565b820191906000526020600020905b81548152906001019060200180831161127857829003601f168201915b505050505081525050935050505092915050565b82823373ffffffffffffffffffffffffffffffffffffffff16600083836040516112d49291906127de565b908152602001604051809103902060000160009054906101000a900473ffffffffffffffffffffffffffffffffffffffff1673ffffffffffffffffffffffffffffffffffffffff1614611353576040517f390772fc00000000000000000000000000000000000000000000000000000000815260040160405180910390fd5b600073ffffffffffffffffffffffffffffffffffffffff168373ffffffffffffffffffffffffffffffffffffffff16036113c2576040517f08c379a00000000000000000000000000000000000000000000000000000000081526004016113b990612e1d565b60405180910390fd5b6000600260008573ffffffffffffffffffffffffffffffffffffffff1673ffffffffffffffffffffffffffffffffffffffff168152602001908152602001600020805461140e90612826565b905014611450576040517f08c379a000000000000000000000000000000000000000000000000000000000815260040161144790612e89565b60405180910390fd5b60008086866040516114639291906127de565b908152602001604051809103902060000160009054906101000a900473ffffffffffffffffffffffffffffffffffffffff169050600260008273ffffffffffffffffffffffffffffffffffffffff1673ffffffffffffffffffffffffffffffffffffffff16815260200190815260200160002060006114e29190611c9d565b8585600260008773ffffffffffffffffffffffffffffffffffffffff1673ffffffffffffffffffffffffffffffffffffffff1681526020019081526020016000209182611530929190612ae0565b5083600087876040516115449291906127de565b908152602001604051809103902060000160006101000a81548173ffffffffffffffffffffffffffffffffffffffff021916908373ffffffffffffffffffffffffffffffffffffffff1602179055508373ffffffffffffffffffffffffffffffffffffffff168173ffffffffffffffffffffffffffffffffffffffff1687876040516115d19291906127de565b60405180910390207f0304cfe9507b1c0f4aaa4eae9bd6b99277a4cf13096c53b82084bd90b98e2ea660405160405180910390a4505050505050565b611615611c72565b8383600073ffffffffffffffffffffffffffffffffffffffff16600083836040516116419291906127de565b908152602001604051809103902060000160009054906101000a900473ffffffffffffffffffffffffffffffffffffffff1673ffffffffffffffffffffffffffffffffffffffff16036116c0576040517f83bcfb4700000000000000000000000000000000000000000000000000000000815260040160405180910390fd5b600186866040516116d29291906127de565b9081526020016040518091039020805490508410611725576040517f08c379a000000000000000000000000000000000000000000000000000000000815260040161171c90612ef5565b60405180910390fd5b600186866040516117379291906127de565b9081526020016040518091039020848154811061175757611756612d36565b5b906000526020600020906004020160405180608001604052908160008201548152602001600182015481526020016002820154815260200160038201805461179e90612826565b80601f01602080910402602001604051908101604052809291908181526020018280546117ca90612826565b80156118175780601f106117ec57610100808354040283529160200191611817565b820191906000526020600020905b8154815290600101906020018083116117fa57829003601f168201915b505050505081525050925050509392505050565b81813373ffffffffffffffffffffffffffffffffffffffff16600083836040516118569291906127de565b908152602001604051809103902060000160009054906101000a900473ffffffffffffffffffffffffffffffffffffffff1673ffffffffffffffffffffffffffffffffffffffff16146118d5576040517f390772fc00000000000000000000000000000000000000000000000000000000815260040160405180910390fd5b6001600085856040516118e99291906127de565b908152602001604051809103902060030160006101000a81548160ff02191690831515021790555050505050565b60006001878760405161192b9291906127de565b908152602001604051809103902080549050851061197e576040517f08c379a000000000000000000000000000000000000000000000000000000000815260040161197590612f61565b60405180910390fd5b6000600188886040516119929291906127de565b908152602001604051809103902086815481106119b2576119b1612d36565b5b9060005260206000209060040201600001549050600085905060005b85859050811015611a6e5760008686838181106119ee576119ed612d36565b5b905060200201359050808311611a2e578281604051602001611a11929190612fa2565b604051602081830303815290604052805190602001209250611a5a565b8083604051602001611a41929190612fa2565b6040516020818303038152906040528051906020012092505b508080611a6690612bdf565b9150506119ce565b50818114925050509695505050505050565b60035481565b6001828051602081018201805184825260208301602085012081835280955050505050508181548110611ab857600080fd5b906000526020600020906004020160009150915050806000015490806001015490806002015490806003018054611aee90612826565b80601f0160208091040260200160405190810160405280929190818152602001828054611b1a90612826565b8015611b675780601f10611b3c57610100808354040283529160200191611b67565b820191906000526020600020905b815481529060010190602001808311611b4a57829003601f168201915b5050505050905084565b6000818051602081018201805184825260208301602085012081835280955050505050506000915090508060000160009054906101000a900473ffffffffffffffffffffffffffffffffffffffff1690806001018054611bd090612826565b80601f0160208091040260200160405190810160405280929190818152602001828054611bfc90612826565b8015611c495780601f10611c1e57610100808354040283529160200191611c49565b820191906000526020600020905b815481529060010190602001808311611c2c57829003601f168201915b5050505050908060020154908060030160009054906101000a900460ff16905084565b60045481565b6040518060800160405280600080191681526020016000815260200160008152602001606081525090565b508054611ca990612826565b6000825580601f10611cbb5750611cda565b601f016020900490600052602060002090810190611cd99190611cdd565b5b50565b5b80821115611cf6576000816000905550600101611cde565b5090565b6000604051905090565b600080fd5b600080fd5b600080fd5b600080fd5b600080fd5b60008083601f840112611d3357611d32611d0e565b5b8235905067ffffffffffffffff811115611d5057611d4f611d13565b5b602083019150836001820283011115611d6c57611d6b611d18565b5b9250929050565b60008060208385031215611d8a57611d89611d04565b5b600083013567ffffffffffffffff811115611da857611da7611d09565b5b611db485828601611d1d565b92509250509250929050565b6000819050919050565b611dd381611dc0565b82525050565b6000602082019050611dee6000830184611dca565b92915050565b6000819050919050565b611e0781611df4565b8114611e1257600080fd5b50565b600081359050611e2481611dfe565b92915050565b600080600080600060608688031215611e4657611e45611d04565b5b600086013567ffffffffffffffff811115611e6457611e63611d09565b5b611e7088828901611d1d565b95509550506020611e8388828901611e15565b935050604086013567ffffffffffffffff811115611ea457611ea3611d09565b5b611eb088828901611d1d565b92509250509295509295909350565b600080600060408486031215611ed857611ed7611d04565b5b6000611ee686828701611e15565b935050602084013567ffffffffffffffff811115611f0757611f06611d09565b5b611f1386828701611d1d565b92509250509250925092565b600073ffffffffffffffffffffffffffffffffffffffff82169050919050565b6000611f4a82611f1f565b9050919050565b611f5a81611f3f565b8114611f6557600080fd5b50565b600081359050611f7781611f51565b92915050565b600060208284031215611f9357611f92611d04565b5b6000611fa184828501611f68565b91505092915050565b600081519050919050565b600082825260208201905092915050565b60005b83811015611fe4578082015181840152602081019050611fc9565b60008484015250505050565b6000601f19601f8301169050919050565b600061200c82611faa565b6120168185611fb5565b9350612026818560208601611fc6565b61202f81611ff0565b840191505092915050565b600060208201905081810360008301526120548184612001565b905092915050565b61206581611dc0565b811461207057600080fd5b50565b6000813590506120828161205c565b92915050565b600080600080606085870312156120a2576120a1611d04565b5b600085013567ffffffffffffffff8111156120c0576120bf611d09565b5b6120cc87828801611d1d565b945094505060206120df87828801612073565b92505060406120f087828801612073565b91505092959194509250565b600081519050919050565b600082825260208201905092915050565b6000819050602082019050919050565b61213181611df4565b82525050565b61214081611dc0565b82525050565b600082825260208201905092915050565b600061216282611faa565b61216c8185612146565b935061217c818560208601611fc6565b61218581611ff0565b840191505092915050565b60006080830160008301516121a86000860182612128565b5060208301516121bb6020860182612137565b5060408301516121ce6040860182612137565b50606083015184820360608601526121e68282612157565b9150508091505092915050565b60006121ff8383612190565b905092915050565b6000602082019050919050565b600061221f826120fc565b6122298185612107565b93508360208202850161223b85612118565b8060005b85811015612277578484038952815161225885826121f3565b945061226383612207565b925060208a0199505060018101905061223f565b50829750879550505050505092915050565b600060208201905081810360008301526122a38184612214565b905092915050565b60006080830160008301516122c36000860182612128565b5060208301516122d66020860182612137565b5060408301516122e96040860182612137565b50606083015184820360608601526123018282612157565b9150508091505092915050565b6000602082019050818103600083015261232881846122ab565b905092915050565b60008060006040848603121561234957612348611d04565b5b600084013567ffffffffffffffff81111561236757612366611d09565b5b61237386828701611d1d565b9350935050602061238686828701611f68565b9150509250925092565b6000806000604084860312156123a9576123a8611d04565b5b600084013567ffffffffffffffff8111156123c7576123c6611d09565b5b6123d386828701611d1d565b935093505060206123e686828701612073565b9150509250925092565b60008083601f84011261240657612405611d0e565b5b8235905067ffffffffffffffff81111561242357612422611d13565b5b60208301915083602082028301111561243f5761243e611d18565b5b9250929050565b6000806000806000806080878903121561246357612462611d04565b5b600087013567ffffffffffffffff81111561248157612480611d09565b5b61248d89828a01611d1d565b965096505060206124a089828a01612073565b94505060406124b189828a01611e15565b935050606087013567ffffffffffffffff8111156124d2576124d1611d09565b5b6124de89828a016123f0565b92509250509295509295509295565b60008115159050919050565b612502816124ed565b82525050565b600060208201905061251d60008301846124f9565b92915050565b600080fd5b7f4e487b7100000000000000000000000000000000000000000000000000000000600052604160045260246000fd5b61256082611ff0565b810181811067ffffffffffffffff8211171561257f5761257e612528565b5b80604052505050565b6000612592611cfa565b905061259e8282612557565b919050565b600067ffffffffffffffff8211156125be576125bd612528565b5b6125c782611ff0565b9050602081019050919050565b82818337600083830152505050565b60006125f66125f1846125a3565b612588565b90508281526020810184848401111561261257612611612523565b5b61261d8482856125d4565b509392505050565b600082601f83011261263a57612639611d0e565b5b813561264a8482602086016125e3565b91505092915050565b6000806040838503121561266a57612669611d04565b5b600083013567ffffffffffffffff81111561268857612687611d09565b5b61269485828601612625565b92505060206126a585828601612073565b9150509250929050565b6126b881611df4565b82525050565b60006080820190506126d360008301876126af565b6126e06020830186611dca565b6126ed6040830185611dca565b81810360608301526126ff8184612001565b905095945050505050565b6000602082840312156127205761271f611d04565b5b600082013567ffffffffffffffff81111561273e5761273d611d09565b5b61274a84828501612625565b91505092915050565b61275c81611f3f565b82525050565b60006080820190506127776000830187612753565b81810360208301526127898186612001565b90506127986040830185611dca565b6127a560608301846124f9565b95945050505050565b600081905092915050565b60006127c583856127ae565b93506127d28385846125d4565b82840190509392505050565b60006127eb8284866127b9565b91508190509392505050565b7f4e487b7100000000000000000000000000000000000000000000000000000000600052602260045260246000fd5b6000600282049050600182168061283e57607f821691505b602082108103612851576128506127f7565b5b50919050565b60008190508160005260206000209050919050565b60006020601f8301049050919050565b600082821b905092915050565b6000600883026128b97fffffffffffffffffffffffffffffffffffffffffffffffffffffffffffffffff8261287c565b6128c3868361287c565b95508019841693508086168417925050509392505050565b6000819050919050565b60006129006128fb6128f684611dc0565b6128db565b611dc0565b9050919050565b6000819050919050565b61291a836128e5565b61292e61292682612907565b848454612889565b825550505050565b600090565b612943612936565b61294e818484612911565b505050565b5b818110156129725761296760008261293b565b600181019050612954565b5050565b601f8211156129b75761298881612857565b6129918461286c565b810160208510156129a0578190505b6129b46129ac8561286c565b830182612953565b50505b505050565b600082821c905092915050565b60006129da600019846008026129bc565b1980831691505092915050565b60006129f383836129c9565b9150826002028217905092915050565b612a0c82611faa565b67ffffffffffffffff811115612a2557612a24612528565b5b612a2f8254612826565b612a3a828285612976565b600060209050601f831160018114612a6d5760008415612a5b578287015190505b612a6585826129e7565b865550612acd565b601f198416612a7b86612857565b60005b82811015612aa357848901518255600182019150602085019450602081019050612a7e565b86831015612ac05784890151612abc601f8916826129c9565b8355505b6001600288020188555050505b505050505050565b600082905092915050565b612aea8383612ad5565b67ffffffffffffffff811115612b0357612b02612528565b5b612b0d8254612826565b612b18828285612976565b6000601f831160018114612b475760008415612b35578287013590505b612b3f85826129e7565b865550612ba7565b601f198416612b5586612857565b60005b82811015612b7d57848901358255600182019150602085019450602081019050612b58565b86831015612b9a5784890135612b96601f8916826129c9565b8355505b6001600288020188555050505b50505050505050565b7f4e487b7100000000000000000000000000000000000000000000000000000000600052601160045260246000fd5b6000612bea82611dc0565b91507fffffffffffffffffffffffffffffffffffffffffffffffffffffffffffffffff8203612c1c57612c1b612bb0565b5b600182019050919050565b6000612c338385611fb5565b9350612c408385846125d4565b612c4983611ff0565b840190509392505050565b6000604082019050612c696000830186611dca565b8181036020830152612c7c818486612c27565b9050949350505050565b6000612c9182611faa565b612c9b81856127ae565b9350612cab818560208601611fc6565b80840191505092915050565b6000612cc38284612c86565b915081905092915050565b6000612cd982611dc0565b9150612ce483611dc0565b9250828201905080821115612cfc57612cfb612bb0565b5b92915050565b6000612d0d82611dc0565b9150612d1883611dc0565b9250828203905081811115612d3057612d2f612bb0565b5b92915050565b7f4e487b7100000000000000000000000000000000000000000000000000000000600052603260045260246000fd5b7f4e6f20636865636b706f696e7473000000000000000000000000000000000000600082015250565b6000612d9b600e83611fb5565b9150612da682612d65565b602082019050919050565b60006020820190508181036000830152612dca81612d8e565b9050919050565b7f496e76616c6964206e6577206f776e6572000000000000000000000000000000600082015250565b6000612e07601183611fb5565b9150612e1282612dd1565b602082019050919050565b60006020820190508181036000830152612e3681612dfa565b9050919050565b7f4e6577206f776e657220616c726561647920686173206167656e740000000000600082015250565b6000612e73601b83611fb5565b9150612e7e82612e3d565b602082019050919050565b60006020820190508181036000830152612ea281612e66565b9050919050565b7f496e646578206f7574206f6620626f756e647300000000000000000000000000600082015250565b6000612edf601383611fb5565b9150612eea82612ea9565b602082019050919050565b60006020820190508181036000830152612f0e81612ed2565b9050919050565b7f496e76616c696420636865636b706f696e740000000000000000000000000000600082015250565b6000612f4b601283611fb5565b9150612f5682612f15565b602082019050919050565b60006020820190508181036000830152612f7a81612f3e565b9050919050565b6000819050919050565b612f9c612f9782611df4565b612f81565b82525050565b6000612fae8285612f8b565b602082019150612fbe8284612f8b565b602082019150819050939250505056fea26469706673582212200233bf5f293990f623b8d945ea00ff06d77798279f0b73be0d9446a2eab5df8464736f6c63430008130033",
  "linkReferences": {},
  "deployedLinkReferences": {},
  "immutableReferences": {},
  "inputSourceName": "project/contracts/AgentMemoryRegistry.sol",
  "buildInfoId": "solc-0_8_19-10d5df48cf26942784c40e83173df654848957a7"
}